{
  "address": "0x2306b42Baca1b34770EA489F4eC2023f5340B0Ca",
  "abi": [
    {
      "inputs": [
        {
          "internalType": "address",
          "name": "nft_",
          "type": "address"
        },
        {
          "internalType": "address",
          "name": "router_",
          "type": "address"
        },
        {
          "internalType": "address",
          "name": "vrfCoordinator_",
          "type": "address"
        },
        {
          "internalType": "address",
          "name": "link_",
          "type": "address"
        },
        {
          "internalType": "bytes32",
          "name": "keyHash_",
          "type": "bytes32"
        },
        {
          "internalType": "uint256",
          "name": "fee_",
          "type": "uint256"
        }
      ],
      "stateMutability": "nonpayable",
      "type": "constructor"
    },
    {
      "anonymous": false,
      "inputs": [
        {
          "indexed": true,
          "internalType": "address",
          "name": "previousOwner",
          "type": "address"
        },
        {
          "indexed": true,
          "internalType": "address",
          "name": "newOwner",
          "type": "address"
        }
      ],
      "name": "OwnershipTransferred",
      "type": "event"
    },
    {
      "inputs": [],
      "name": "OGRoot",
      "outputs": [
        {
          "internalType": "bytes32",
          "name": "",
          "type": "bytes32"
        }
      ],
      "stateMutability": "view",
      "type": "function"
    },
    {
      "inputs": [],
      "name": "amount",
      "outputs": [
        {
          "internalType": "uint256",
          "name": "",
          "type": "uint256"
        }
      ],
      "stateMutability": "view",
      "type": "function"
    },
    {
      "inputs": [
        {
          "internalType": "uint256",
          "name": "_duration",
          "type": "uint256"
        }
      ],
      "name": "changeDuration",
      "outputs": [],
      "stateMutability": "nonpayable",
      "type": "function"
    },
    {
      "inputs": [],
      "name": "claim",
      "outputs": [],
      "stateMutability": "nonpayable",
      "type": "function"
    },
    {
      "inputs": [],
      "name": "duration",
      "outputs": [
        {
          "internalType": "uint256",
          "name": "",
          "type": "uint256"
        }
      ],
      "stateMutability": "view",
      "type": "function"
    },
    {
      "inputs": [],
      "name": "feeETH",
      "outputs": [
        {
          "internalType": "uint256",
          "name": "",
          "type": "uint256"
        }
      ],
      "stateMutability": "view",
      "type": "function"
    },
    {
      "inputs": [
        {
          "internalType": "bytes32",
          "name": "",
          "type": "bytes32"
        }
      ],
      "name": "filled",
      "outputs": [
        {
          "internalType": "bool",
          "name": "",
          "type": "bool"
        }
      ],
      "stateMutability": "view",
      "type": "function"
    },
    {
      "inputs": [
        {
          "internalType": "uint256",
          "name": "",
          "type": "uint256"
        }
      ],
      "name": "indexes",
      "outputs": [
        {
          "internalType": "uint256",
          "name": "",
          "type": "uint256"
        }
      ],
      "stateMutability": "view",
      "type": "function"
    },
    {
      "inputs": [],
      "name": "maxQuantity",
      "outputs": [
        {
          "internalType": "uint256",
          "name": "",
          "type": "uint256"
        }
      ],
      "stateMutability": "view",
      "type": "function"
    },
    {
      "inputs": [
        {
          "internalType": "uint256",
          "name": "quantity",
          "type": "uint256"
        },
        {
          "internalType": "bytes32[]",
          "name": "proof",
          "type": "bytes32[]"
        }
      ],
      "name": "mint",
      "outputs": [],
      "stateMutability": "payable",
      "type": "function"
    },
    {
      "inputs": [
        {
          "internalType": "bytes32",
          "name": "",
          "type": "bytes32"
        }
      ],
      "name": "mintAmount",
      "outputs": [
        {
          "internalType": "uint256",
          "name": "",
          "type": "uint256"
        }
      ],
      "stateMutability": "view",
      "type": "function"
    },
    {
      "inputs": [
        {
          "internalType": "address",
          "name": "",
          "type": "address"
        }
      ],
      "name": "minted",
      "outputs": [
        {
          "internalType": "uint256",
          "name": "",
          "type": "uint256"
        }
      ],
      "stateMutability": "view",
      "type": "function"
    },
    {
      "inputs": [],
      "name": "nft",
      "outputs": [
        {
          "internalType": "contract IERC721Custom",
          "name": "",
          "type": "address"
        }
      ],
      "stateMutability": "view",
      "type": "function"
    },
    {
      "inputs": [],
      "name": "ogQuantity",
      "outputs": [
        {
          "internalType": "uint256",
          "name": "",
          "type": "uint256"
        }
      ],
      "stateMutability": "view",
      "type": "function"
    },
    {
      "inputs": [],
      "name": "owner",
      "outputs": [
        {
          "internalType": "address",
          "name": "",
          "type": "address"
        }
      ],
      "stateMutability": "view",
      "type": "function"
    },
    {
      "inputs": [
        {
          "internalType": "bytes32",
          "name": "",
          "type": "bytes32"
        }
      ],
      "name": "randomNumbers",
      "outputs": [
        {
          "internalType": "uint256",
          "name": "",
          "type": "uint256"
        }
      ],
      "stateMutability": "view",
      "type": "function"
    },
    {
      "inputs": [
        {
          "internalType": "uint256",
          "name": "number",
          "type": "uint256"
        },
        {
          "internalType": "uint256",
          "name": "from",
          "type": "uint256"
        },
        {
          "internalType": "uint256",
          "name": "to",
          "type": "uint256"
        }
      ],
      "name": "range",
      "outputs": [
        {
          "internalType": "uint256",
          "name": "",
          "type": "uint256"
        }
      ],
      "stateMutability": "pure",
      "type": "function"
    },
    {
      "inputs": [
        {
          "internalType": "bytes32",
          "name": "requestId",
          "type": "bytes32"
        },
        {
          "internalType": "uint256",
          "name": "randomness",
          "type": "uint256"
        }
      ],
      "name": "rawFulfillRandomness",
      "outputs": [],
      "stateMutability": "nonpayable",
      "type": "function"
    },
    {
      "inputs": [],
      "name": "renounceOwnership",
      "outputs": [],
      "stateMutability": "nonpayable",
      "type": "function"
    },
    {
      "inputs": [
        {
          "internalType": "address",
          "name": "",
          "type": "address"
        }
      ],
      "name": "requestIds",
      "outputs": [
        {
          "internalType": "bytes32",
          "name": "",
          "type": "bytes32"
        }
      ],
      "stateMutability": "view",
      "type": "function"
    },
    {
      "inputs": [],
      "name": "router",
      "outputs": [
        {
          "internalType": "contract IRouter",
          "name": "",
          "type": "address"
        }
      ],
      "stateMutability": "view",
      "type": "function"
    },
    {
      "inputs": [
        {
          "internalType": "bytes32",
          "name": "_OGRoot",
          "type": "bytes32"
        }
      ],
      "name": "saveRootOg",
      "outputs": [],
      "stateMutability": "nonpayable",
      "type": "function"
    },
    {
      "inputs": [
        {
          "internalType": "bytes32",
          "name": "_whitelistRoot",
          "type": "bytes32"
        }
      ],
      "name": "saveRootWhitelist",
      "outputs": [],
      "stateMutability": "nonpayable",
      "type": "function"
    },
    {
      "inputs": [],
      "name": "startDate",
      "outputs": [
        {
          "internalType": "uint256",
          "name": "",
          "type": "uint256"
        }
      ],
      "stateMutability": "view",
      "type": "function"
    },
    {
      "inputs": [],
      "name": "startMinting",
      "outputs": [],
      "stateMutability": "nonpayable",
      "type": "function"
    },
    {
      "inputs": [],
      "name": "stopMinting",
      "outputs": [],
      "stateMutability": "nonpayable",
      "type": "function"
    },
    {
      "inputs": [
        {
          "internalType": "address",
          "name": "newOwner",
          "type": "address"
        }
      ],
      "name": "transferOwnership",
      "outputs": [],
      "stateMutability": "nonpayable",
      "type": "function"
    },
    {
      "inputs": [
        {
          "internalType": "bytes32",
          "name": "",
          "type": "bytes32"
        }
      ],
      "name": "unclaim",
      "outputs": [
        {
          "internalType": "bool",
          "name": "",
          "type": "bool"
        }
      ],
      "stateMutability": "view",
      "type": "function"
    },
    {
      "inputs": [
        {
          "internalType": "bytes32[]",
          "name": "proof",
          "type": "bytes32[]"
        },
        {
          "internalType": "bytes32",
          "name": "root",
          "type": "bytes32"
        },
        {
          "internalType": "bytes32",
          "name": "leaf",
          "type": "bytes32"
        }
      ],
      "name": "verify",
      "outputs": [
        {
          "internalType": "bool",
          "name": "",
          "type": "bool"
        }
      ],
      "stateMutability": "pure",
      "type": "function"
    },
    {
      "inputs": [],
      "name": "whitelistRoot",
      "outputs": [
        {
          "internalType": "bytes32",
          "name": "",
          "type": "bytes32"
        }
      ],
      "stateMutability": "view",
      "type": "function"
    },
    {
      "inputs": [],
      "name": "whitlistQuantity",
      "outputs": [
        {
          "internalType": "uint256",
          "name": "",
          "type": "uint256"
        }
      ],
      "stateMutability": "view",
      "type": "function"
    },
    {
      "stateMutability": "payable",
      "type": "receive"
    }
  ],
  "transactionHash": "0x7a70129241905fa38c9dfbf2f95a2632abd3338bc6ab7747f165d064bd33d0c5",
  "args": [
    "0x330ceed8e9fc1c5051389fe435c8574a22efd6b2",
    "0x7a250d5630B4cF539739dF2C5dAcb4c659F2488D",
    "0xf0d54349aDdcf704F77AE15b96510dEA15cb7952",
    "0x514910771AF9Ca656af840dff83E8264EcF986CA",
    "0xAA77729D3466CA35AE8D28B3BBAC7CC36A5031EFDC430821C02BC31A238AF445",
    "2000000000000000000"
  ],
  "numDeployments": 1,
  "solcInputHash": "29936b529d5d4614c5f98d123d4fa47b",
  "bytecode": "0x60c060405260046006556002600755601460085562093a806009556127106014553480156200002d57600080fd5b506040516200336638038062003366833981810160405281019062000053919062000329565b83838173ffffffffffffffffffffffffffffffffffffffff1660a08173ffffffffffffffffffffffffffffffffffffffff16815250508073ffffffffffffffffffffffffffffffffffffffff1660808173ffffffffffffffffffffffffffffffffffffffff16815250505050620000df620000d36200017b60201b60201c565b6200018360201b60201c565b85600260006101000a81548173ffffffffffffffffffffffffffffffffffffffff021916908373ffffffffffffffffffffffffffffffffffffffff16021790555084601160006101000a81548173ffffffffffffffffffffffffffffffffffffffff021916908373ffffffffffffffffffffffffffffffffffffffff16021790555081600a8190555080600b81905550505050505050620003c5565b600033905090565b6000600160009054906101000a900473ffffffffffffffffffffffffffffffffffffffff16905081600160006101000a81548173ffffffffffffffffffffffffffffffffffffffff021916908373ffffffffffffffffffffffffffffffffffffffff1602179055508173ffffffffffffffffffffffffffffffffffffffff168173ffffffffffffffffffffffffffffffffffffffff167f8be0079c531659141344cd1fd0a4f28419497f9722a3daafe3b4186f6b6457e060405160405180910390a35050565b600080fd5b600073ffffffffffffffffffffffffffffffffffffffff82169050919050565b60006200027b826200024e565b9050919050565b6200028d816200026e565b81146200029957600080fd5b50565b600081519050620002ad8162000282565b92915050565b6000819050919050565b620002c881620002b3565b8114620002d457600080fd5b50565b600081519050620002e881620002bd565b92915050565b6000819050919050565b6200030381620002ee565b81146200030f57600080fd5b50565b6000815190506200032381620002f8565b92915050565b60008060008060008060c0878903121562000349576200034862000249565b5b60006200035989828a016200029c565b96505060206200036c89828a016200029c565b95505060406200037f89828a016200029c565b94505060606200039289828a016200029c565b9350506080620003a589828a01620002d7565b92505060a0620003b889828a0162000312565b9150509295509295509295565b60805160a051612f5f62000407600039600081816110420152611d4a01526000818161095601528181611a8901528181611c1e0152611d0e0152612f5f6000f3fe6080604052600436106101dc5760003560e01c8063805c378c11610102578063ba41b0c611610095578063f0b5336511610064578063f0b533651461069a578063f2fde38b146106c5578063f887ea40146106ee578063fa4ab1ee14610719576101e3565b8063ba41b0c6146105eb578063d35fbbfb14610607578063da7f02ab14610644578063e640cf7d1461066f576101e3565b80639a65ea26116100d15780639a65ea2614610555578063aa8c217c1461056c578063af00219214610597578063b594f086146105c2576101e3565b8063805c378c146104875780638da5cb5b146104c457806392f8eb94146104ef57806394985ddd1461052c576101e3565b806342f5ddf31161017a5780635a9a49c7116101495780635a9a49c7146103e1578063690a66321461041e578063715018a6146104475780637e6a0fbc1461045e576101e3565b806342f5ddf31461032557806347ccca02146103625780634e71d92d1461038d578063594a1e87146103a4576101e3565b8063288cdc91116101b6578063288cdc911461027b578063386bfc98146102b85780633e3e0b12146102e35780634078fca8146102fa576101e3565b80630b97bc86146101e85780630fb5a6b4146102135780631e7269c51461023e576101e3565b366101e357005b600080fd5b3480156101f457600080fd5b506101fd610756565b60405161020a9190611ee2565b60405180910390f35b34801561021f57600080fd5b5061022861075c565b6040516102359190611ee2565b60405180910390f35b34801561024a57600080fd5b5061026560048036038101906102609190611f6f565b610762565b6040516102729190611ee2565b60405180910390f35b34801561028757600080fd5b506102a2600480360381019061029d9190611fd2565b61077a565b6040516102af919061201a565b60405180910390f35b3480156102c457600080fd5b506102cd61079a565b6040516102da9190612044565b60405180910390f35b3480156102ef57600080fd5b506102f86107a0565b005b34801561030657600080fd5b5061030f610826565b60405161031c9190611ee2565b60405180910390f35b34801561033157600080fd5b5061034c60048036038101906103479190611fd2565b610a89565b6040516103599190611ee2565b60405180910390f35b34801561036e57600080fd5b50610377610aa1565b60405161038491906120be565b60405180910390f35b34801561039957600080fd5b506103a2610ac7565b005b3480156103b057600080fd5b506103cb60048036038101906103c69190611f6f565b610d7e565b6040516103d89190612044565b60405180910390f35b3480156103ed57600080fd5b5061040860048036038101906104039190612232565b610d96565b604051610415919061201a565b60405180910390f35b34801561042a57600080fd5b5061044560048036038101906104409190611fd2565b610e4a565b005b34801561045357600080fd5b5061045c610ed0565b005b34801561046a57600080fd5b5061048560048036038101906104809190611fd2565b610f58565b005b34801561049357600080fd5b506104ae60048036038101906104a99190611fd2565b610fde565b6040516104bb919061201a565b60405180910390f35b3480156104d057600080fd5b506104d9610ffe565b6040516104e691906122b0565b60405180910390f35b3480156104fb57600080fd5b50610516600480360381019061051191906122f7565b611028565b6040516105239190611ee2565b60405180910390f35b34801561053857600080fd5b50610553600480360381019061054e9190612324565b611040565b005b34801561056157600080fd5b5061056a6110dc565b005b34801561057857600080fd5b50610581611161565b60405161058e9190611ee2565b60405180910390f35b3480156105a357600080fd5b506105ac611167565b6040516105b99190611ee2565b60405180910390f35b3480156105ce57600080fd5b506105e960048036038101906105e491906122f7565b61116d565b005b61060560048036038101906106009190612364565b6111f3565b005b34801561061357600080fd5b5061062e600480360381019061062991906123c0565b611685565b60405161063b9190611ee2565b60405180910390f35b34801561065057600080fd5b506106596116b2565b6040516106669190611ee2565b60405180910390f35b34801561067b57600080fd5b506106846116b8565b6040516106919190611ee2565b60405180910390f35b3480156106a657600080fd5b506106af6116be565b6040516106bc9190612044565b60405180910390f35b3480156106d157600080fd5b506106ec60048036038101906106e79190611f6f565b6116c4565b005b3480156106fa57600080fd5b506107036117bc565b6040516107109190612434565b60405180910390f35b34801561072557600080fd5b50610740600480360381019061073b9190611fd2565b6117e2565b60405161074d9190611ee2565b60405180910390f35b60035481565b60095481565b60126020528060005260406000206000915090505481565b60106020528060005260406000206000915054906101000a900460ff1681565b60045481565b6107a86117fa565b73ffffffffffffffffffffffffffffffffffffffff166107c6610ffe565b73ffffffffffffffffffffffffffffffffffffffff161461081c576040517f08c379a0000000000000000000000000000000000000000000000000000000008152600401610813906124ac565b60405180910390fd5b6000600381905550565b600080600267ffffffffffffffff811115610844576108436120ef565b5b6040519080825280602002602001820160405280156108725781602001602082028036833780820191505090505b509050601160009054906101000a900473ffffffffffffffffffffffffffffffffffffffff1673ffffffffffffffffffffffffffffffffffffffff1663ad5c46486040518163ffffffff1660e01b8152600401602060405180830381865afa1580156108e2573d6000803e3d6000fd5b505050506040513d601f19601f8201168201806040525081019061090691906124e1565b8160008151811061091a5761091961250e565b5b602002602001019073ffffffffffffffffffffffffffffffffffffffff16908173ffffffffffffffffffffffffffffffffffffffff16815250507f0000000000000000000000000000000000000000000000000000000000000000816001815181106109895761098861250e565b5b602002602001019073ffffffffffffffffffffffffffffffffffffffff16908173ffffffffffffffffffffffffffffffffffffffff1681525050601160009054906101000a900473ffffffffffffffffffffffffffffffffffffffff1673ffffffffffffffffffffffffffffffffffffffff16631f00ca74600b54836040518363ffffffff1660e01b8152600401610a229291906125fb565b600060405180830381865afa158015610a3f573d6000803e3d6000fd5b505050506040513d6000823e3d601f19601f82011682018060405250810190610a689190612703565b600081518110610a7b57610a7a61250e565b5b602002602001015191505090565b600d6020528060005260406000206000915090505481565b600260009054906101000a900473ffffffffffffffffffffffffffffffffffffffff1681565b6000600c60003373ffffffffffffffffffffffffffffffffffffffff1673ffffffffffffffffffffffffffffffffffffffff168152602001908152602001600020549050600e600082815260200190815260200160002060009054906101000a900460ff168015610b5557506010600082815260200190815260200160002060009054906101000a900460ff165b610b5e57600080fd5b6000600d60008381526020019081526020016000205490506000600f600084815260200190815260200160002054905060005b82811015610d4c576000610bdf8383604051602001610bb192919061276d565b6040516020818303038152906040528051906020012060001c600180601454610bda91906127c8565b611685565b905060008060136000848152602001908152602001600020541415610c0657819050610c1d565b601360008381526020019081526020016000205490505b60006013600060145481526020019081526020016000205490506000811415610c5f576014546013600085815260200190815260200160002081905550610c8d565b6013600060145481526020019081526020016000205460136000858152602001908152602001600020819055505b600160146000828254610ca0919061281e565b92505081905550600260009054906101000a900473ffffffffffffffffffffffffffffffffffffffff1673ffffffffffffffffffffffffffffffffffffffff166340c10f1933846040518363ffffffff1660e01b8152600401610d04929190612852565b600060405180830381600087803b158015610d1e57600080fd5b505af1158015610d32573d6000803e3d6000fd5b505050505050508080610d449061287b565b915050610b91565b506000600e600085815260200190815260200160002060006101000a81548160ff021916908315150217905550505050565b600c6020528060005260406000206000915090505481565b60008082905060005b8551811015610e3c576000868281518110610dbd57610dbc61250e565b5b60200260200101519050808310610dfc578083604051602001610de19291906128e5565b60405160208183030381529060405280519060200120610e26565b8281604051602001610e0f9291906128e5565b604051602081830303815290604052805190602001205b9250508080610e349061287b565b915050610d9f565b508381149150509392505050565b610e526117fa565b73ffffffffffffffffffffffffffffffffffffffff16610e70610ffe565b73ffffffffffffffffffffffffffffffffffffffff1614610ec6576040517f08c379a0000000000000000000000000000000000000000000000000000000008152600401610ebd906124ac565b60405180910390fd5b8060058190555050565b610ed86117fa565b73ffffffffffffffffffffffffffffffffffffffff16610ef6610ffe565b73ffffffffffffffffffffffffffffffffffffffff1614610f4c576040517f08c379a0000000000000000000000000000000000000000000000000000000008152600401610f43906124ac565b60405180910390fd5b610f566000611802565b565b610f606117fa565b73ffffffffffffffffffffffffffffffffffffffff16610f7e610ffe565b73ffffffffffffffffffffffffffffffffffffffff1614610fd4576040517f08c379a0000000000000000000000000000000000000000000000000000000008152600401610fcb906124ac565b60405180910390fd5b8060048190555050565b600e6020528060005260406000206000915054906101000a900460ff1681565b6000600160009054906101000a900473ffffffffffffffffffffffffffffffffffffffff16905090565b60136020528060005260406000206000915090505481565b7f000000000000000000000000000000000000000000000000000000000000000073ffffffffffffffffffffffffffffffffffffffff163373ffffffffffffffffffffffffffffffffffffffff16146110ce576040517f08c379a00000000000000000000000000000000000000000000000000000000081526004016110c59061295d565b60405180910390fd5b6110d882826118c8565b5050565b6110e46117fa565b73ffffffffffffffffffffffffffffffffffffffff16611102610ffe565b73ffffffffffffffffffffffffffffffffffffffff1614611158576040517f08c379a000000000000000000000000000000000000000000000000000000000815260040161114f906124ac565b60405180910390fd5b42600381905550565b60145481565b60075481565b6111756117fa565b73ffffffffffffffffffffffffffffffffffffffff16611193610ffe565b73ffffffffffffffffffffffffffffffffffffffff16146111e9576040517f08c379a00000000000000000000000000000000000000000000000000000000081526004016111e0906124ac565b60405180910390fd5b8060098190555050565b600060035414158015611214575060095460035461121191906127c8565b42105b611253576040517f08c379a000000000000000000000000000000000000000000000000000000000815260040161124a906129c9565b60405180910390fd5b600e6000600c60003373ffffffffffffffffffffffffffffffffffffffff1673ffffffffffffffffffffffffffffffffffffffff16815260200190815260200160002054815260200190815260200160002060009054906101000a900460ff16156112bd57600080fd5b600060145411611302576040517f08c379a00000000000000000000000000000000000000000000000000000000081526004016112f990612a35565b60405180910390fd5b60006201518060035442611316919061281e565b101561151e5760003360405160200161132f91906122b0565b60405160208183030381529060405280519060200120905060006113568460055484610d96565b905060006113678560045485610d96565b905081806113725750805b6113b1576040517f08c379a00000000000000000000000000000000000000000000000000000000081526004016113a890612aa1565b60405180910390fd5b811561146557601260003373ffffffffffffffffffffffffffffffffffffffff1673ffffffffffffffffffffffffffffffffffffffff16815260200190815260200160002054600654611404919061281e565b8611611410578561145e565b601260003373ffffffffffffffffffffffffffffffffffffffff1673ffffffffffffffffffffffffffffffffffffffff1681526020019081526020016000205460065461145d919061281e565b5b9350611516565b801561151557601260003373ffffffffffffffffffffffffffffffffffffffff1673ffffffffffffffffffffffffffffffffffffffff168152602001908152602001600020546007546114b8919061281e565b86116114c45785611512565b601260003373ffffffffffffffffffffffffffffffffffffffff1673ffffffffffffffffffffffffffffffffffffffff16815260200190815260200160002054600754611511919061281e565b5b93505b5b505050611534565b600854831161152d5782611531565b6008545b90505b60145481116115435780611547565b6014545b9050600081141561158d576040517f08c379a000000000000000000000000000000000000000000000000000000000815260040161158490612b0d565b60405180910390fd5b80601260003373ffffffffffffffffffffffffffffffffffffffff1673ffffffffffffffffffffffffffffffffffffffff16815260200190815260200160002060008282546115dc91906127c8565b925050819055506115eb611910565b60006115f5611c17565b90506001600e600083815260200190815260200160002060006101000a81548160ff02191690831515021790555081600d60008381526020019081526020016000208190555080600c60003373ffffffffffffffffffffffffffffffffffffffff1673ffffffffffffffffffffffffffffffffffffffff1681526020019081526020016000208190555050505050565b6000828383611694919061281e565b8561169f9190612b5c565b6116a991906127c8565b90509392505050565b60065481565b60085481565b60055481565b6116cc6117fa565b73ffffffffffffffffffffffffffffffffffffffff166116ea610ffe565b73ffffffffffffffffffffffffffffffffffffffff1614611740576040517f08c379a0000000000000000000000000000000000000000000000000000000008152600401611737906124ac565b60405180910390fd5b600073ffffffffffffffffffffffffffffffffffffffff168173ffffffffffffffffffffffffffffffffffffffff1614156117b0576040517f08c379a00000000000000000000000000000000000000000000000000000000081526004016117a790612bff565b60405180910390fd5b6117b981611802565b50565b601160009054906101000a900473ffffffffffffffffffffffffffffffffffffffff1681565b600f6020528060005260406000206000915090505481565b600033905090565b6000600160009054906101000a900473ffffffffffffffffffffffffffffffffffffffff16905081600160006101000a81548173ffffffffffffffffffffffffffffffffffffffff021916908373ffffffffffffffffffffffffffffffffffffffff1602179055508173ffffffffffffffffffffffffffffffffffffffff168173ffffffffffffffffffffffffffffffffffffffff167f8be0079c531659141344cd1fd0a4f28419497f9722a3daafe3b4186f6b6457e060405160405180910390a35050565b80600f60008481526020019081526020016000208190555060016010600084815260200190815260200160002060006101000a81548160ff0219169083151502179055505050565b611918610826565b34101561195a576040517f08c379a000000000000000000000000000000000000000000000000000000000815260040161195190612c6b565b60405180910390fd5b6000600267ffffffffffffffff811115611977576119766120ef565b5b6040519080825280602002602001820160405280156119a55781602001602082028036833780820191505090505b509050601160009054906101000a900473ffffffffffffffffffffffffffffffffffffffff1673ffffffffffffffffffffffffffffffffffffffff1663ad5c46486040518163ffffffff1660e01b8152600401602060405180830381865afa158015611a15573d6000803e3d6000fd5b505050506040513d601f19601f82011682018060405250810190611a3991906124e1565b81600081518110611a4d57611a4c61250e565b5b602002602001019073ffffffffffffffffffffffffffffffffffffffff16908173ffffffffffffffffffffffffffffffffffffffff16815250507f000000000000000000000000000000000000000000000000000000000000000081600181518110611abc57611abb61250e565b5b602002602001019073ffffffffffffffffffffffffffffffffffffffff16908173ffffffffffffffffffffffffffffffffffffffff16815250506000601160009054906101000a900473ffffffffffffffffffffffffffffffffffffffff1673ffffffffffffffffffffffffffffffffffffffff1663fb3bdb4134600b548530426040518663ffffffff1660e01b8152600401611b5c9493929190612c8b565b60006040518083038185885af1158015611b7a573d6000803e3d6000fd5b50505050506040513d6000823e3d601f19601f82011682018060405250810190611ba49190612703565b90503373ffffffffffffffffffffffffffffffffffffffff166108fc82600081518110611bd457611bd361250e565b5b602002602001015134611be7919061281e565b9081150290604051600060405180830381858888f19350505050158015611c12573d6000803e3d6000fd5b505050565b6000600b547f000000000000000000000000000000000000000000000000000000000000000073ffffffffffffffffffffffffffffffffffffffff166370a08231306040518263ffffffff1660e01b8152600401611c7591906122b0565b602060405180830381865afa158015611c92573d6000803e3d6000fd5b505050506040513d601f19601f82011682018060405250810190611cb69190612cd7565b1015611cf7576040517f08c379a0000000000000000000000000000000000000000000000000000000008152600401611cee90612d50565b60405180910390fd5b611d05600a54600b54611d0a565b905090565b60007f000000000000000000000000000000000000000000000000000000000000000073ffffffffffffffffffffffffffffffffffffffff16634000aea07f000000000000000000000000000000000000000000000000000000000000000084866000604051602001611d7e929190612d70565b6040516020818303038152906040526040518463ffffffff1660e01b8152600401611dab93929190612e21565b6020604051808303816000875af1158015611dca573d6000803e3d6000fd5b505050506040513d601f19601f82011682018060405250810190611dee9190612e8b565b506000611e108460003060008089815260200190815260200160002054611e5a565b9050600160008086815260200190815260200160002054611e3191906127c8565b60008086815260200190815260200160002081905550611e518482611e96565b91505092915050565b600084848484604051602001611e739493929190612eb8565b6040516020818303038152906040528051906020012060001c9050949350505050565b60008282604051602001611eab929190612efd565b60405160208183030381529060405280519060200120905092915050565b6000819050919050565b611edc81611ec9565b82525050565b6000602082019050611ef76000830184611ed3565b92915050565b6000604051905090565b600080fd5b600080fd5b600073ffffffffffffffffffffffffffffffffffffffff82169050919050565b6000611f3c82611f11565b9050919050565b611f4c81611f31565b8114611f5757600080fd5b50565b600081359050611f6981611f43565b92915050565b600060208284031215611f8557611f84611f07565b5b6000611f9384828501611f5a565b91505092915050565b6000819050919050565b611faf81611f9c565b8114611fba57600080fd5b50565b600081359050611fcc81611fa6565b92915050565b600060208284031215611fe857611fe7611f07565b5b6000611ff684828501611fbd565b91505092915050565b60008115159050919050565b61201481611fff565b82525050565b600060208201905061202f600083018461200b565b92915050565b61203e81611f9c565b82525050565b60006020820190506120596000830184612035565b92915050565b6000819050919050565b600061208461207f61207a84611f11565b61205f565b611f11565b9050919050565b600061209682612069565b9050919050565b60006120a88261208b565b9050919050565b6120b88161209d565b82525050565b60006020820190506120d360008301846120af565b92915050565b600080fd5b6000601f19601f8301169050919050565b7f4e487b7100000000000000000000000000000000000000000000000000000000600052604160045260246000fd5b612127826120de565b810181811067ffffffffffffffff82111715612146576121456120ef565b5b80604052505050565b6000612159611efd565b9050612165828261211e565b919050565b600067ffffffffffffffff821115612185576121846120ef565b5b602082029050602081019050919050565b600080fd5b60006121ae6121a98461216a565b61214f565b905080838252602082019050602084028301858111156121d1576121d0612196565b5b835b818110156121fa57806121e68882611fbd565b8452602084019350506020810190506121d3565b5050509392505050565b600082601f830112612219576122186120d9565b5b813561222984826020860161219b565b91505092915050565b60008060006060848603121561224b5761224a611f07565b5b600084013567ffffffffffffffff81111561226957612268611f0c565b5b61227586828701612204565b935050602061228686828701611fbd565b925050604061229786828701611fbd565b9150509250925092565b6122aa81611f31565b82525050565b60006020820190506122c560008301846122a1565b92915050565b6122d481611ec9565b81146122df57600080fd5b50565b6000813590506122f1816122cb565b92915050565b60006020828403121561230d5761230c611f07565b5b600061231b848285016122e2565b91505092915050565b6000806040838503121561233b5761233a611f07565b5b600061234985828601611fbd565b925050602061235a858286016122e2565b9150509250929050565b6000806040838503121561237b5761237a611f07565b5b6000612389858286016122e2565b925050602083013567ffffffffffffffff8111156123aa576123a9611f0c565b5b6123b685828601612204565b9150509250929050565b6000806000606084860312156123d9576123d8611f07565b5b60006123e7868287016122e2565b93505060206123f8868287016122e2565b9250506040612409868287016122e2565b9150509250925092565b600061241e8261208b565b9050919050565b61242e81612413565b82525050565b60006020820190506124496000830184612425565b92915050565b600082825260208201905092915050565b7f4f776e61626c653a2063616c6c6572206973206e6f7420746865206f776e6572600082015250565b600061249660208361244f565b91506124a182612460565b602082019050919050565b600060208201905081810360008301526124c581612489565b9050919050565b6000815190506124db81611f43565b92915050565b6000602082840312156124f7576124f6611f07565b5b6000612505848285016124cc565b91505092915050565b7f4e487b7100000000000000000000000000000000000000000000000000000000600052603260045260246000fd5b600081519050919050565b600082825260208201905092915050565b6000819050602082019050919050565b61257281611f31565b82525050565b60006125848383612569565b60208301905092915050565b6000602082019050919050565b60006125a88261253d565b6125b28185612548565b93506125bd83612559565b8060005b838110156125ee5781516125d58882612578565b97506125e083612590565b9250506001810190506125c1565b5085935050505092915050565b60006040820190506126106000830185611ed3565b8181036020830152612622818461259d565b90509392505050565b600067ffffffffffffffff821115612646576126456120ef565b5b602082029050602081019050919050565b600081519050612666816122cb565b92915050565b600061267f61267a8461262b565b61214f565b905080838252602082019050602084028301858111156126a2576126a1612196565b5b835b818110156126cb57806126b78882612657565b8452602084019350506020810190506126a4565b5050509392505050565b600082601f8301126126ea576126e96120d9565b5b81516126fa84826020860161266c565b91505092915050565b60006020828403121561271957612718611f07565b5b600082015167ffffffffffffffff81111561273757612736611f0c565b5b612743848285016126d5565b91505092915050565b6000819050919050565b61276761276282611ec9565b61274c565b82525050565b60006127798285612756565b6020820191506127898284612756565b6020820191508190509392505050565b7f4e487b7100000000000000000000000000000000000000000000000000000000600052601160045260246000fd5b60006127d382611ec9565b91506127de83611ec9565b9250827fffffffffffffffffffffffffffffffffffffffffffffffffffffffffffffffff0382111561281357612812612799565b5b828201905092915050565b600061282982611ec9565b915061283483611ec9565b92508282101561284757612846612799565b5b828203905092915050565b600060408201905061286760008301856122a1565b6128746020830184611ed3565b9392505050565b600061288682611ec9565b91507fffffffffffffffffffffffffffffffffffffffffffffffffffffffffffffffff8214156128b9576128b8612799565b5b600182019050919050565b6000819050919050565b6128df6128da82611f9c565b6128c4565b82525050565b60006128f182856128ce565b60208201915061290182846128ce565b6020820191508190509392505050565b7f4f6e6c7920565246436f6f7264696e61746f722063616e2066756c66696c6c00600082015250565b6000612947601f8361244f565b915061295282612911565b602082019050919050565b600060208201905081810360008301526129768161293a565b9050919050565b7f4d696e742068617665206e6f7420737461727465642079657400000000000000600082015250565b60006129b360198361244f565b91506129be8261297d565b602082019050919050565b600060208201905081810360008301526129e2816129a6565b9050919050565b7f4d6178206f757400000000000000000000000000000000000000000000000000600082015250565b6000612a1f60078361244f565b9150612a2a826129e9565b602082019050919050565b60006020820190508181036000830152612a4e81612a12565b9050919050565b7f596f752063616e74206d696e7420746865206e6674207269676874206e6f7700600082015250565b6000612a8b601f8361244f565b9150612a9682612a55565b602082019050919050565b60006020820190508181036000830152612aba81612a7e565b9050919050565b7f596f752063616e74206d696e74207a65726f0000000000000000000000000000600082015250565b6000612af760128361244f565b9150612b0282612ac1565b602082019050919050565b60006020820190508181036000830152612b2681612aea565b9050919050565b7f4e487b7100000000000000000000000000000000000000000000000000000000600052601260045260246000fd5b6000612b6782611ec9565b9150612b7283611ec9565b925082612b8257612b81612b2d565b5b828206905092915050565b7f4f776e61626c653a206e6577206f776e657220697320746865207a65726f206160008201527f6464726573730000000000000000000000000000000000000000000000000000602082015250565b6000612be960268361244f565b9150612bf482612b8d565b604082019050919050565b60006020820190508181036000830152612c1881612bdc565b9050919050565b7f4e6f7420656e6f7567682057424e4220746f2070617920666565000000000000600082015250565b6000612c55601a8361244f565b9150612c6082612c1f565b602082019050919050565b60006020820190508181036000830152612c8481612c48565b9050919050565b6000608082019050612ca06000830187611ed3565b8181036020830152612cb2818661259d565b9050612cc160408301856122a1565b612cce6060830184611ed3565b95945050505050565b600060208284031215612ced57612cec611f07565b5b6000612cfb84828501612657565b91505092915050565b7f4e6f7420656e6f756768204c494e4b0000000000000000000000000000000000600082015250565b6000612d3a600f8361244f565b9150612d4582612d04565b602082019050919050565b60006020820190508181036000830152612d6981612d2d565b9050919050565b6000604082019050612d856000830185612035565b612d926020830184611ed3565b9392505050565b600081519050919050565b600082825260208201905092915050565b60005b83811015612dd3578082015181840152602081019050612db8565b83811115612de2576000848401525b50505050565b6000612df382612d99565b612dfd8185612da4565b9350612e0d818560208601612db5565b612e16816120de565b840191505092915050565b6000606082019050612e3660008301866122a1565b612e436020830185611ed3565b8181036040830152612e558184612de8565b9050949350505050565b612e6881611fff565b8114612e7357600080fd5b50565b600081519050612e8581612e5f565b92915050565b600060208284031215612ea157612ea0611f07565b5b6000612eaf84828501612e76565b91505092915050565b6000608082019050612ecd6000830187612035565b612eda6020830186611ed3565b612ee760408301856122a1565b612ef46060830184611ed3565b95945050505050565b6000612f0982856128ce565b602082019150612f198284612756565b602082019150819050939250505056fea26469706673582212201edf95739882ef68675be143575224b297190e0e4949370300f2df05b834771a64736f6c634300080b0033",
  "devdoc": {
    "kind": "dev",
    "methods": {
      "feeETH()": {
        "details": "fee of one spin",
        "returns": {
          "_0": "fee amount of fee for one spin in ETH"
        }
      },
      "mint(uint256,bytes32[])": {
        "details": "mints nft to user",
        "params": {
          "proof": "array of bytes for merkle tree verifing",
          "quantity": "amount of nft to mint"
        }
      },
      "owner()": {
        "details": "Returns the address of the current owner."
      },
      "range(uint256,uint256,uint256)": {
        "details": "maps number to range from `from` (includes) to `to` (excludes)",
        "params": {
          "from": "start of range",
          "number": "initial number",
          "to": "stop of range"
        },
        "returns": {
          "_0": "map result"
        }
      },
      "renounceOwnership()": {
        "details": "Leaves the contract without owner. It will not be possible to call `onlyOwner` functions anymore. Can only be called by the current owner. NOTE: Renouncing ownership will leave the contract without an owner, thereby removing any functionality that is only available to the owner."
      },
      "saveRootOg(bytes32)": {
        "details": "sets og Root",
        "params": {
          "_OGRoot": "OG's tree root"
        }
      },
      "saveRootWhitelist(bytes32)": {
        "details": "sets whitelist Root",
        "params": {
          "_whitelistRoot": "whitelist's tree root"
        }
      },
      "transferOwnership(address)": {
        "details": "Transfers ownership of the contract to a new account (`newOwner`). Can only be called by the current owner."
      },
      "verify(bytes32[],bytes32,bytes32)": {
        "details": "verifies ogs",
        "params": {
          "leaf": "keccak256 of user address",
          "proof": "array of bytes for merkle tree verifing",
          "root": "tree's root"
        }
      }
    },
    "version": 1
  },
  "userdoc": {
    "kind": "user",
    "methods": {},
    "version": 1
  },
  "storageLayout": {
    "storage": [
      {
        "astId": 79,
        "contract": "contracts/Minting.sol:Minting",
        "label": "nonces",
        "offset": 0,
        "slot": "0",
        "type": "t_mapping(t_bytes32,t_uint256)"
      },
      {
        "astId": 273,
        "contract": "contracts/Minting.sol:Minting",
        "label": "_owner",
        "offset": 0,
        "slot": "1",
        "type": "t_address"
      },
      {
        "astId": 455,
        "contract": "contracts/Minting.sol:Minting",
        "label": "nft",
        "offset": 0,
        "slot": "2",
        "type": "t_contract(IERC721Custom)405"
      },
      {
        "astId": 457,
        "contract": "contracts/Minting.sol:Minting",
        "label": "startDate",
        "offset": 0,
        "slot": "3",
        "type": "t_uint256"
      },
      {
        "astId": 459,
        "contract": "contracts/Minting.sol:Minting",
        "label": "whitelistRoot",
        "offset": 0,
        "slot": "4",
        "type": "t_bytes32"
      },
      {
        "astId": 461,
        "contract": "contracts/Minting.sol:Minting",
        "label": "OGRoot",
        "offset": 0,
        "slot": "5",
        "type": "t_bytes32"
      },
      {
        "astId": 464,
        "contract": "contracts/Minting.sol:Minting",
        "label": "ogQuantity",
        "offset": 0,
        "slot": "6",
        "type": "t_uint256"
      },
      {
        "astId": 467,
        "contract": "contracts/Minting.sol:Minting",
        "label": "whitlistQuantity",
        "offset": 0,
        "slot": "7",
        "type": "t_uint256"
      },
      {
        "astId": 470,
        "contract": "contracts/Minting.sol:Minting",
        "label": "maxQuantity",
        "offset": 0,
        "slot": "8",
        "type": "t_uint256"
      },
      {
        "astId": 473,
        "contract": "contracts/Minting.sol:Minting",
        "label": "duration",
        "offset": 0,
        "slot": "9",
        "type": "t_uint256"
      },
      {
        "astId": 475,
        "contract": "contracts/Minting.sol:Minting",
        "label": "keyHash",
        "offset": 0,
        "slot": "10",
        "type": "t_bytes32"
      },
      {
        "astId": 477,
        "contract": "contracts/Minting.sol:Minting",
        "label": "fee",
        "offset": 0,
        "slot": "11",
        "type": "t_uint256"
      },
      {
        "astId": 481,
        "contract": "contracts/Minting.sol:Minting",
        "label": "requestIds",
        "offset": 0,
        "slot": "12",
        "type": "t_mapping(t_address,t_bytes32)"
      },
      {
        "astId": 485,
        "contract": "contracts/Minting.sol:Minting",
        "label": "mintAmount",
        "offset": 0,
        "slot": "13",
        "type": "t_mapping(t_bytes32,t_uint256)"
      },
      {
        "astId": 489,
        "contract": "contracts/Minting.sol:Minting",
        "label": "unclaim",
        "offset": 0,
        "slot": "14",
        "type": "t_mapping(t_bytes32,t_bool)"
      },
      {
        "astId": 493,
        "contract": "contracts/Minting.sol:Minting",
        "label": "randomNumbers",
        "offset": 0,
        "slot": "15",
        "type": "t_mapping(t_bytes32,t_uint256)"
      },
      {
        "astId": 497,
        "contract": "contracts/Minting.sol:Minting",
        "label": "filled",
        "offset": 0,
        "slot": "16",
        "type": "t_mapping(t_bytes32,t_bool)"
      },
      {
        "astId": 500,
        "contract": "contracts/Minting.sol:Minting",
        "label": "router",
        "offset": 0,
        "slot": "17",
        "type": "t_contract(IRouter)448"
      },
      {
        "astId": 504,
        "contract": "contracts/Minting.sol:Minting",
        "label": "minted",
        "offset": 0,
        "slot": "18",
        "type": "t_mapping(t_address,t_uint256)"
      },
      {
        "astId": 508,
        "contract": "contracts/Minting.sol:Minting",
        "label": "indexes",
        "offset": 0,
        "slot": "19",
        "type": "t_mapping(t_uint256,t_uint256)"
      },
      {
        "astId": 511,
        "contract": "contracts/Minting.sol:Minting",
        "label": "amount",
        "offset": 0,
        "slot": "20",
        "type": "t_uint256"
      }
    ],
    "types": {
      "t_address": {
        "encoding": "inplace",
        "label": "address",
        "numberOfBytes": "20"
      },
      "t_bool": {
        "encoding": "inplace",
        "label": "bool",
        "numberOfBytes": "1"
      },
      "t_bytes32": {
        "encoding": "inplace",
        "label": "bytes32",
        "numberOfBytes": "32"
      },
      "t_contract(IERC721Custom)405": {
        "encoding": "inplace",
        "label": "contract IERC721Custom",
        "numberOfBytes": "20"
      },
      "t_contract(IRouter)448": {
        "encoding": "inplace",
        "label": "contract IRouter",
        "numberOfBytes": "20"
      },
      "t_mapping(t_address,t_bytes32)": {
        "encoding": "mapping",
        "key": "t_address",
        "label": "mapping(address => bytes32)",
        "numberOfBytes": "32",
        "value": "t_bytes32"
      },
      "t_mapping(t_address,t_uint256)": {
        "encoding": "mapping",
        "key": "t_address",
        "label": "mapping(address => uint256)",
        "numberOfBytes": "32",
        "value": "t_uint256"
      },
      "t_mapping(t_bytes32,t_bool)": {
        "encoding": "mapping",
        "key": "t_bytes32",
        "label": "mapping(bytes32 => bool)",
        "numberOfBytes": "32",
        "value": "t_bool"
      },
      "t_mapping(t_bytes32,t_uint256)": {
        "encoding": "mapping",
        "key": "t_bytes32",
        "label": "mapping(bytes32 => uint256)",
        "numberOfBytes": "32",
        "value": "t_uint256"
      },
      "t_mapping(t_uint256,t_uint256)": {
        "encoding": "mapping",
        "key": "t_uint256",
        "label": "mapping(uint256 => uint256)",
        "numberOfBytes": "32",
        "value": "t_uint256"
      },
      "t_uint256": {
        "encoding": "inplace",
        "label": "uint256",
        "numberOfBytes": "32"
      }
    }
  }
}