{
  "address": "0xDc221c9a019B609EDBfdD3969cDFb1982B5BC7A7",
  "abi": [
    {
      "inputs": [],
      "stateMutability": "nonpayable",
      "type": "constructor"
    },
    {
      "inputs": [],
      "name": "ApprovalCallerNotOwnerNorApproved",
      "type": "error"
    },
    {
      "inputs": [],
      "name": "ApprovalQueryForNonexistentToken",
      "type": "error"
    },
    {
      "inputs": [],
      "name": "ApprovalToCurrentOwner",
      "type": "error"
    },
    {
      "inputs": [],
      "name": "ApproveToCaller",
      "type": "error"
    },
    {
      "inputs": [],
      "name": "BalanceQueryForZeroAddress",
      "type": "error"
    },
    {
      "inputs": [],
      "name": "MintToZeroAddress",
      "type": "error"
    },
    {
      "inputs": [],
      "name": "MintZeroQuantity",
      "type": "error"
    },
    {
      "inputs": [],
      "name": "OwnerIndexOutOfBounds",
      "type": "error"
    },
    {
      "inputs": [],
      "name": "OwnerQueryForNonexistentToken",
      "type": "error"
    },
    {
      "inputs": [],
      "name": "TokenIndexOutOfBounds",
      "type": "error"
    },
    {
      "inputs": [],
      "name": "TransferCallerNotOwnerNorApproved",
      "type": "error"
    },
    {
      "inputs": [],
      "name": "TransferFromIncorrectOwner",
      "type": "error"
    },
    {
      "inputs": [],
      "name": "TransferToNonERC721ReceiverImplementer",
      "type": "error"
    },
    {
      "inputs": [],
      "name": "TransferToZeroAddress",
      "type": "error"
    },
    {
      "inputs": [],
      "name": "URIQueryForNonexistentToken",
      "type": "error"
    },
    {
      "anonymous": false,
      "inputs": [
        {
          "indexed": true,
          "internalType": "address",
          "name": "owner",
          "type": "address"
        },
        {
          "indexed": true,
          "internalType": "address",
          "name": "approved",
          "type": "address"
        },
        {
          "indexed": true,
          "internalType": "uint256",
          "name": "tokenId",
          "type": "uint256"
        }
      ],
      "name": "Approval",
      "type": "event"
    },
    {
      "anonymous": false,
      "inputs": [
        {
          "indexed": true,
          "internalType": "address",
          "name": "owner",
          "type": "address"
        },
        {
          "indexed": true,
          "internalType": "address",
          "name": "operator",
          "type": "address"
        },
        {
          "indexed": false,
          "internalType": "bool",
          "name": "approved",
          "type": "bool"
        }
      ],
      "name": "ApprovalForAll",
      "type": "event"
    },
    {
      "anonymous": false,
      "inputs": [
        {
          "indexed": true,
          "internalType": "address",
          "name": "previousOwner",
          "type": "address"
        },
        {
          "indexed": true,
          "internalType": "address",
          "name": "newOwner",
          "type": "address"
        }
      ],
      "name": "OwnershipTransferred",
      "type": "event"
    },
    {
      "anonymous": false,
      "inputs": [
        {
          "indexed": true,
          "internalType": "bytes32",
          "name": "role",
          "type": "bytes32"
        },
        {
          "indexed": true,
          "internalType": "bytes32",
          "name": "previousAdminRole",
          "type": "bytes32"
        },
        {
          "indexed": true,
          "internalType": "bytes32",
          "name": "newAdminRole",
          "type": "bytes32"
        }
      ],
      "name": "RoleAdminChanged",
      "type": "event"
    },
    {
      "anonymous": false,
      "inputs": [
        {
          "indexed": true,
          "internalType": "bytes32",
          "name": "role",
          "type": "bytes32"
        },
        {
          "indexed": true,
          "internalType": "address",
          "name": "account",
          "type": "address"
        },
        {
          "indexed": true,
          "internalType": "address",
          "name": "sender",
          "type": "address"
        }
      ],
      "name": "RoleGranted",
      "type": "event"
    },
    {
      "anonymous": false,
      "inputs": [
        {
          "indexed": true,
          "internalType": "bytes32",
          "name": "role",
          "type": "bytes32"
        },
        {
          "indexed": true,
          "internalType": "address",
          "name": "account",
          "type": "address"
        },
        {
          "indexed": true,
          "internalType": "address",
          "name": "sender",
          "type": "address"
        }
      ],
      "name": "RoleRevoked",
      "type": "event"
    },
    {
      "anonymous": false,
      "inputs": [
        {
          "indexed": true,
          "internalType": "address",
          "name": "from",
          "type": "address"
        },
        {
          "indexed": true,
          "internalType": "address",
          "name": "to",
          "type": "address"
        },
        {
          "indexed": true,
          "internalType": "uint256",
          "name": "tokenId",
          "type": "uint256"
        }
      ],
      "name": "Transfer",
      "type": "event"
    },
    {
      "inputs": [],
      "name": "DEFAULT_ADMIN_ROLE",
      "outputs": [
        {
          "internalType": "bytes32",
          "name": "",
          "type": "bytes32"
        }
      ],
      "stateMutability": "view",
      "type": "function"
    },
    {
      "inputs": [
        {
          "internalType": "address",
          "name": "to",
          "type": "address"
        },
        {
          "internalType": "uint256",
          "name": "tokenId",
          "type": "uint256"
        }
      ],
      "name": "approve",
      "outputs": [],
      "stateMutability": "nonpayable",
      "type": "function"
    },
    {
      "inputs": [
        {
          "internalType": "address",
          "name": "owner",
          "type": "address"
        }
      ],
      "name": "balanceOf",
      "outputs": [
        {
          "internalType": "uint256",
          "name": "",
          "type": "uint256"
        }
      ],
      "stateMutability": "view",
      "type": "function"
    },
    {
      "inputs": [],
      "name": "baseURI",
      "outputs": [
        {
          "internalType": "string",
          "name": "",
          "type": "string"
        }
      ],
      "stateMutability": "view",
      "type": "function"
    },
    {
      "inputs": [
        {
          "internalType": "uint256",
          "name": "tokenId",
          "type": "uint256"
        }
      ],
      "name": "getApproved",
      "outputs": [
        {
          "internalType": "address",
          "name": "",
          "type": "address"
        }
      ],
      "stateMutability": "view",
      "type": "function"
    },
    {
      "inputs": [
        {
          "internalType": "bytes32",
          "name": "role",
          "type": "bytes32"
        }
      ],
      "name": "getRoleAdmin",
      "outputs": [
        {
          "internalType": "bytes32",
          "name": "",
          "type": "bytes32"
        }
      ],
      "stateMutability": "view",
      "type": "function"
    },
    {
      "inputs": [
        {
          "internalType": "bytes32",
          "name": "role",
          "type": "bytes32"
        },
        {
          "internalType": "address",
          "name": "account",
          "type": "address"
        }
      ],
      "name": "grantRole",
      "outputs": [],
      "stateMutability": "nonpayable",
      "type": "function"
    },
    {
      "inputs": [
        {
          "internalType": "bytes32",
          "name": "role",
          "type": "bytes32"
        },
        {
          "internalType": "address",
          "name": "account",
          "type": "address"
        }
      ],
      "name": "hasRole",
      "outputs": [
        {
          "internalType": "bool",
          "name": "",
          "type": "bool"
        }
      ],
      "stateMutability": "view",
      "type": "function"
    },
    {
      "inputs": [
        {
          "internalType": "address",
          "name": "owner",
          "type": "address"
        },
        {
          "internalType": "address",
          "name": "operator",
          "type": "address"
        }
      ],
      "name": "isApprovedForAll",
      "outputs": [
        {
          "internalType": "bool",
          "name": "",
          "type": "bool"
        }
      ],
      "stateMutability": "view",
      "type": "function"
    },
    {
      "inputs": [
        {
          "internalType": "address",
          "name": "user",
          "type": "address"
        },
        {
          "internalType": "uint256",
          "name": "quantity",
          "type": "uint256"
        }
      ],
      "name": "mint",
      "outputs": [],
      "stateMutability": "payable",
      "type": "function"
    },
    {
      "inputs": [],
      "name": "minter",
      "outputs": [
        {
          "internalType": "bytes32",
          "name": "",
          "type": "bytes32"
        }
      ],
      "stateMutability": "view",
      "type": "function"
    },
    {
      "inputs": [],
      "name": "name",
      "outputs": [
        {
          "internalType": "string",
          "name": "",
          "type": "string"
        }
      ],
      "stateMutability": "view",
      "type": "function"
    },
    {
      "inputs": [],
      "name": "owner",
      "outputs": [
        {
          "internalType": "address",
          "name": "",
          "type": "address"
        }
      ],
      "stateMutability": "view",
      "type": "function"
    },
    {
      "inputs": [
        {
          "internalType": "uint256",
          "name": "tokenId",
          "type": "uint256"
        }
      ],
      "name": "ownerOf",
      "outputs": [
        {
          "internalType": "address",
          "name": "",
          "type": "address"
        }
      ],
      "stateMutability": "view",
      "type": "function"
    },
    {
      "inputs": [],
      "name": "renounceOwnership",
      "outputs": [],
      "stateMutability": "nonpayable",
      "type": "function"
    },
    {
      "inputs": [
        {
          "internalType": "bytes32",
          "name": "role",
          "type": "bytes32"
        },
        {
          "internalType": "address",
          "name": "account",
          "type": "address"
        }
      ],
      "name": "renounceRole",
      "outputs": [],
      "stateMutability": "nonpayable",
      "type": "function"
    },
    {
      "inputs": [
        {
          "internalType": "address",
          "name": "_minter",
          "type": "address"
        }
      ],
      "name": "revokeMinter",
      "outputs": [],
      "stateMutability": "nonpayable",
      "type": "function"
    },
    {
      "inputs": [
        {
          "internalType": "bytes32",
          "name": "role",
          "type": "bytes32"
        },
        {
          "internalType": "address",
          "name": "account",
          "type": "address"
        }
      ],
      "name": "revokeRole",
      "outputs": [],
      "stateMutability": "nonpayable",
      "type": "function"
    },
    {
      "inputs": [
        {
          "internalType": "address",
          "name": "from",
          "type": "address"
        },
        {
          "internalType": "address",
          "name": "to",
          "type": "address"
        },
        {
          "internalType": "uint256",
          "name": "tokenId",
          "type": "uint256"
        }
      ],
      "name": "safeTransferFrom",
      "outputs": [],
      "stateMutability": "nonpayable",
      "type": "function"
    },
    {
      "inputs": [
        {
          "internalType": "address",
          "name": "from",
          "type": "address"
        },
        {
          "internalType": "address",
          "name": "to",
          "type": "address"
        },
        {
          "internalType": "uint256",
          "name": "tokenId",
          "type": "uint256"
        },
        {
          "internalType": "bytes",
          "name": "_data",
          "type": "bytes"
        }
      ],
      "name": "safeTransferFrom",
      "outputs": [],
      "stateMutability": "nonpayable",
      "type": "function"
    },
    {
      "inputs": [
        {
          "internalType": "address",
          "name": "operator",
          "type": "address"
        },
        {
          "internalType": "bool",
          "name": "approved",
          "type": "bool"
        }
      ],
      "name": "setApprovalForAll",
      "outputs": [],
      "stateMutability": "nonpayable",
      "type": "function"
    },
    {
      "inputs": [
        {
          "internalType": "address",
          "name": "_minter",
          "type": "address"
        }
      ],
      "name": "setMinter",
      "outputs": [],
      "stateMutability": "nonpayable",
      "type": "function"
    },
    {
      "inputs": [
        {
          "internalType": "string",
          "name": "uri",
          "type": "string"
        }
      ],
      "name": "setURI",
      "outputs": [],
      "stateMutability": "nonpayable",
      "type": "function"
    },
    {
      "inputs": [
        {
          "internalType": "bytes4",
          "name": "interfaceId",
          "type": "bytes4"
        }
      ],
      "name": "supportsInterface",
      "outputs": [
        {
          "internalType": "bool",
          "name": "",
          "type": "bool"
        }
      ],
      "stateMutability": "view",
      "type": "function"
    },
    {
      "inputs": [],
      "name": "symbol",
      "outputs": [
        {
          "internalType": "string",
          "name": "",
          "type": "string"
        }
      ],
      "stateMutability": "view",
      "type": "function"
    },
    {
      "inputs": [
        {
          "internalType": "uint256",
          "name": "index",
          "type": "uint256"
        }
      ],
      "name": "tokenByIndex",
      "outputs": [
        {
          "internalType": "uint256",
          "name": "",
          "type": "uint256"
        }
      ],
      "stateMutability": "view",
      "type": "function"
    },
    {
      "inputs": [
        {
          "internalType": "address",
          "name": "owner",
          "type": "address"
        },
        {
          "internalType": "uint256",
          "name": "index",
          "type": "uint256"
        }
      ],
      "name": "tokenOfOwnerByIndex",
      "outputs": [
        {
          "internalType": "uint256",
          "name": "",
          "type": "uint256"
        }
      ],
      "stateMutability": "view",
      "type": "function"
    },
    {
      "inputs": [
        {
          "internalType": "uint256",
          "name": "tokenId",
          "type": "uint256"
        }
      ],
      "name": "tokenURI",
      "outputs": [
        {
          "internalType": "string",
          "name": "",
          "type": "string"
        }
      ],
      "stateMutability": "view",
      "type": "function"
    },
    {
      "inputs": [],
      "name": "totalSupply",
      "outputs": [
        {
          "internalType": "uint256",
          "name": "",
          "type": "uint256"
        }
      ],
      "stateMutability": "view",
      "type": "function"
    },
    {
      "inputs": [
        {
          "internalType": "address",
          "name": "from",
          "type": "address"
        },
        {
          "internalType": "address",
          "name": "to",
          "type": "address"
        },
        {
          "internalType": "uint256",
          "name": "tokenId",
          "type": "uint256"
        }
      ],
      "name": "transferFrom",
      "outputs": [],
      "stateMutability": "nonpayable",
      "type": "function"
    },
    {
      "inputs": [
        {
          "internalType": "address",
          "name": "newOwner",
          "type": "address"
        }
      ],
      "name": "transferOwnership",
      "outputs": [],
      "stateMutability": "nonpayable",
      "type": "function"
    }
  ],
  "transactionHash": "0x97633b119cfebb3987f08bcc0d3e8441539538b1a80943548275a5b9fc687e28",
  "args": [],
  "numDeployments": 1,
  "solcInputHash": "3bd367f5caff43a6cab1136e0f966811",
  "bytecode": "0x60806040523480156200001157600080fd5b506040518060400160405280600f81526020017f47656e657369732050656e6775696e00000000000000000000000000000000008152506040518060400160405280600281526020017f475000000000000000000000000000000000000000000000000000000000000081525081600190805190602001906200009692919062000318565b508060029080519060200190620000af92919062000318565b505050620000d2620000c6620000ed60201b60201c565b620000f560201b60201c565b620000e76000801b33620001bb60201b60201c565b6200042d565b600033905090565b6000600860009054906101000a900473ffffffffffffffffffffffffffffffffffffffff16905081600860006101000a81548173ffffffffffffffffffffffffffffffffffffffff021916908373ffffffffffffffffffffffffffffffffffffffff1602179055508173ffffffffffffffffffffffffffffffffffffffff168173ffffffffffffffffffffffffffffffffffffffff167f8be0079c531659141344cd1fd0a4f28419497f9722a3daafe3b4186f6b6457e060405160405180910390a35050565b620001cd8282620002ad60201b60201c565b620002a95760016007600084815260200190815260200160002060000160008373ffffffffffffffffffffffffffffffffffffffff1673ffffffffffffffffffffffffffffffffffffffff16815260200190815260200160002060006101000a81548160ff0219169083151502179055506200024e620000ed60201b60201c565b73ffffffffffffffffffffffffffffffffffffffff168173ffffffffffffffffffffffffffffffffffffffff16837f2f8788117e7eff1d82e926ec794901d17c78024a50270940304540a733656f0d60405160405180910390a45b5050565b60006007600084815260200190815260200160002060000160008373ffffffffffffffffffffffffffffffffffffffff1673ffffffffffffffffffffffffffffffffffffffff16815260200190815260200160002060009054906101000a900460ff16905092915050565b8280546200032690620003f7565b90600052602060002090601f0160209004810192826200034a576000855562000396565b82601f106200036557805160ff191683800117855562000396565b8280016001018555821562000396579182015b828111156200039557825182559160200191906001019062000378565b5b509050620003a59190620003a9565b5090565b5b80821115620003c4576000816000905550600101620003aa565b5090565b7f4e487b7100000000000000000000000000000000000000000000000000000000600052602260045260246000fd5b600060028204905060018216806200041057607f821691505b60208210811415620004275762000426620003c8565b5b50919050565b613eb5806200043d6000396000f3fe6080604052600436106101d85760003560e01c80636352211e11610102578063a22cb46511610095578063d547741f11610064578063d547741f146106d3578063e985e9c5146106fc578063f2fde38b14610739578063fca3b5aa14610762576101d8565b8063a22cb4651461061b578063b88d4fde14610644578063c87b56dd1461066d578063cfbd4885146106aa576101d8565b80638da5cb5b116100d15780638da5cb5b1461055d57806391d148541461058857806395d89b41146105c5578063a217fddf146105f0576101d8565b80636352211e146104a15780636c0360eb146104de57806370a0823114610509578063715018a614610546576101d8565b806323b872dd1161017a57806336568abe1161014957806336568abe146103f657806340c10f191461041f57806342842e0e1461043b5780634f6ccce714610464576101d8565b806323b872dd1461032a578063248a9ca3146103535780632f2ff15d146103905780632f745c59146103b9576101d8565b806307546172116101b6578063075461721461026e578063081812fc14610299578063095ea7b3146102d657806318160ddd146102ff576101d8565b806301ffc9a7146101dd57806302fe53051461021a57806306fdde0314610243575b600080fd5b3480156101e957600080fd5b5061020460048036038101906101ff91906130b9565b61078b565b6040516102119190613101565b60405180910390f35b34801561022657600080fd5b50610241600480360381019061023c9190613262565b61079d565b005b34801561024f57600080fd5b50610258610833565b6040516102659190613333565b60405180910390f35b34801561027a57600080fd5b506102836108c5565b604051610290919061336e565b60405180910390f35b3480156102a557600080fd5b506102c060048036038101906102bb91906133bf565b6108e9565b6040516102cd919061342d565b60405180910390f35b3480156102e257600080fd5b506102fd60048036038101906102f89190613474565b610965565b005b34801561030b57600080fd5b50610314610a70565b60405161032191906134c3565b60405180910390f35b34801561033657600080fd5b50610351600480360381019061034c91906134de565b610ac5565b005b34801561035f57600080fd5b5061037a6004803603810190610375919061355d565b610ad5565b604051610387919061336e565b60405180910390f35b34801561039c57600080fd5b506103b760048036038101906103b2919061358a565b610af5565b005b3480156103c557600080fd5b506103e060048036038101906103db9190613474565b610b1e565b6040516103ed91906134c3565b60405180910390f35b34801561040257600080fd5b5061041d6004803603810190610418919061358a565b610d25565b005b61043960048036038101906104349190613474565b610da8565b005b34801561044757600080fd5b50610462600480360381019061045d91906134de565b610de9565b005b34801561047057600080fd5b5061048b600480360381019061048691906133bf565b610e09565b60405161049891906134c3565b60405180910390f35b3480156104ad57600080fd5b506104c860048036038101906104c391906133bf565b610f7a565b6040516104d5919061342d565b60405180910390f35b3480156104ea57600080fd5b506104f3610f90565b6040516105009190613333565b60405180910390f35b34801561051557600080fd5b50610530600480360381019061052b91906135ca565b61101e565b60405161053d91906134c3565b60405180910390f35b34801561055257600080fd5b5061055b6110ee565b005b34801561056957600080fd5b50610572611176565b60405161057f919061342d565b60405180910390f35b34801561059457600080fd5b506105af60048036038101906105aa919061358a565b6111a0565b6040516105bc9190613101565b60405180910390f35b3480156105d157600080fd5b506105da61120b565b6040516105e79190613333565b60405180910390f35b3480156105fc57600080fd5b5061060561129d565b604051610612919061336e565b60405180910390f35b34801561062757600080fd5b50610642600480360381019061063d9190613623565b6112a4565b005b34801561065057600080fd5b5061066b60048036038101906106669190613704565b61141c565b005b34801561067957600080fd5b50610694600480360381019061068f91906133bf565b61146f565b6040516106a19190613333565b60405180910390f35b3480156106b657600080fd5b506106d160048036038101906106cc91906135ca565b61150e565b005b3480156106df57600080fd5b506106fa60048036038101906106f5919061358a565b61153b565b005b34801561070857600080fd5b50610723600480360381019061071e9190613787565b611564565b6040516107309190613101565b60405180910390f35b34801561074557600080fd5b50610760600480360381019061075b91906135ca565b6115f8565b005b34801561076e57600080fd5b50610789600480360381019061078491906135ca565b6116f0565b005b600061079682611799565b9050919050565b6107a5611813565b73ffffffffffffffffffffffffffffffffffffffff166107c3611176565b73ffffffffffffffffffffffffffffffffffffffff1614610819576040517f08c379a000000000000000000000000000000000000000000000000000000000815260040161081090613813565b60405180910390fd5b806009908051906020019061082f929190612f67565b5050565b60606001805461084290613862565b80601f016020809104026020016040519081016040528092919081815260200182805461086e90613862565b80156108bb5780601f10610890576101008083540402835291602001916108bb565b820191906000526020600020905b81548152906001019060200180831161089e57829003601f168201915b5050505050905090565b7f6d696e746572000000000000000000000000000000000000000000000000000081565b60006108f48261181b565b61092a576040517fcf4700e400000000000000000000000000000000000000000000000000000000815260040160405180910390fd5b6005600083815260200190815260200160002060009054906101000a900473ffffffffffffffffffffffffffffffffffffffff169050919050565b600061097082610f7a565b90508073ffffffffffffffffffffffffffffffffffffffff168373ffffffffffffffffffffffffffffffffffffffff1614156109d8576040517f943f7b8c00000000000000000000000000000000000000000000000000000000815260040160405180910390fd5b8073ffffffffffffffffffffffffffffffffffffffff166109f7611813565b73ffffffffffffffffffffffffffffffffffffffff1614158015610a295750610a2781610a22611813565b611564565b155b15610a60576040517fcfb3b94200000000000000000000000000000000000000000000000000000000815260040160405180910390fd5b610a6b838383611883565b505050565b60008060109054906101000a90046fffffffffffffffffffffffffffffffff1660008054906101000a90046fffffffffffffffffffffffffffffffff16036fffffffffffffffffffffffffffffffff16905090565b610ad0838383611935565b505050565b600060076000838152602001908152602001600020600101549050919050565b610afe82610ad5565b610b0f81610b0a611813565b611e52565b610b198383611eef565b505050565b6000610b298361101e565b8210610b61576040517f0ddac30e00000000000000000000000000000000000000000000000000000000815260040160405180910390fd5b60008060009054906101000a90046fffffffffffffffffffffffffffffffff166fffffffffffffffffffffffffffffffff16905060008060005b83811015610d19576000600360008381526020019081526020016000206040518060600160405290816000820160009054906101000a900473ffffffffffffffffffffffffffffffffffffffff1673ffffffffffffffffffffffffffffffffffffffff1673ffffffffffffffffffffffffffffffffffffffff1681526020016000820160149054906101000a900467ffffffffffffffff1667ffffffffffffffff1667ffffffffffffffff16815260200160008201601c9054906101000a900460ff1615151515815250509050806040015115610c785750610d0c565b600073ffffffffffffffffffffffffffffffffffffffff16816000015173ffffffffffffffffffffffffffffffffffffffff1614610cb857806000015192505b8773ffffffffffffffffffffffffffffffffffffffff168373ffffffffffffffffffffffffffffffffffffffff161415610d0a5786841415610d01578195505050505050610d1f565b83806001019450505b505b8080600101915050610b9b565b50600080fd5b92915050565b610d2d611813565b73ffffffffffffffffffffffffffffffffffffffff168173ffffffffffffffffffffffffffffffffffffffff1614610d9a576040517f08c379a0000000000000000000000000000000000000000000000000000000008152600401610d9190613906565b60405180910390fd5b610da48282611fd0565b5050565b7f6d696e7465720000000000000000000000000000000000000000000000000000610dda81610dd5611813565b611e52565b610de483836120b2565b505050565b610e048383836040518060200160405280600081525061141c565b505050565b60008060008054906101000a90046fffffffffffffffffffffffffffffffff166fffffffffffffffffffffffffffffffff1690506000805b82811015610f42576000600360008381526020019081526020016000206040518060600160405290816000820160009054906101000a900473ffffffffffffffffffffffffffffffffffffffff1673ffffffffffffffffffffffffffffffffffffffff1673ffffffffffffffffffffffffffffffffffffffff1681526020016000820160149054906101000a900467ffffffffffffffff1667ffffffffffffffff1667ffffffffffffffff16815260200160008201601c9054906101000a900460ff16151515158152505090508060400151610f345785831415610f2b5781945050505050610f75565b82806001019350505b508080600101915050610e41565b506040517fa723001c00000000000000000000000000000000000000000000000000000000815260040160405180910390fd5b919050565b6000610f85826120d0565b600001519050919050565b60098054610f9d90613862565b80601f0160208091040260200160405190810160405280929190818152602001828054610fc990613862565b80156110165780601f10610feb57610100808354040283529160200191611016565b820191906000526020600020905b815481529060010190602001808311610ff957829003601f168201915b505050505081565b60008073ffffffffffffffffffffffffffffffffffffffff168273ffffffffffffffffffffffffffffffffffffffff161415611086576040517f8f4eb60400000000000000000000000000000000000000000000000000000000815260040160405180910390fd5b600460008373ffffffffffffffffffffffffffffffffffffffff1673ffffffffffffffffffffffffffffffffffffffff16815260200190815260200160002060000160009054906101000a900467ffffffffffffffff1667ffffffffffffffff169050919050565b6110f6611813565b73ffffffffffffffffffffffffffffffffffffffff16611114611176565b73ffffffffffffffffffffffffffffffffffffffff161461116a576040517f08c379a000000000000000000000000000000000000000000000000000000000815260040161116190613813565b60405180910390fd5b6111746000612378565b565b6000600860009054906101000a900473ffffffffffffffffffffffffffffffffffffffff16905090565b60006007600084815260200190815260200160002060000160008373ffffffffffffffffffffffffffffffffffffffff1673ffffffffffffffffffffffffffffffffffffffff16815260200190815260200160002060009054906101000a900460ff16905092915050565b60606002805461121a90613862565b80601f016020809104026020016040519081016040528092919081815260200182805461124690613862565b80156112935780601f1061126857610100808354040283529160200191611293565b820191906000526020600020905b81548152906001019060200180831161127657829003601f168201915b5050505050905090565b6000801b81565b6112ac611813565b73ffffffffffffffffffffffffffffffffffffffff168273ffffffffffffffffffffffffffffffffffffffff161415611311576040517fb06307db00000000000000000000000000000000000000000000000000000000815260040160405180910390fd5b806006600061131e611813565b73ffffffffffffffffffffffffffffffffffffffff1673ffffffffffffffffffffffffffffffffffffffff16815260200190815260200160002060008473ffffffffffffffffffffffffffffffffffffffff1673ffffffffffffffffffffffffffffffffffffffff16815260200190815260200160002060006101000a81548160ff0219169083151502179055508173ffffffffffffffffffffffffffffffffffffffff166113cb611813565b73ffffffffffffffffffffffffffffffffffffffff167f17307eab39ab6107e8899845ad3d59bd9653f200f220920489ca2b5937696c31836040516114109190613101565b60405180910390a35050565b611427848484611935565b6114338484848461243e565b611469576040517fd1a57ed600000000000000000000000000000000000000000000000000000000815260040160405180910390fd5b50505050565b606061147a8261181b565b6114b0576040517fa14c4b5000000000000000000000000000000000000000000000000000000000815260040160405180910390fd5b60006114ba6125bd565b90506000815114156114db5760405180602001604052806000815250611506565b806114e58461264f565b6040516020016114f6929190613962565b6040516020818303038152906040525b915050919050565b6115387f6d696e74657200000000000000000000000000000000000000000000000000008261153b565b50565b61154482610ad5565b61155581611550611813565b611e52565b61155f8383611fd0565b505050565b6000600660008473ffffffffffffffffffffffffffffffffffffffff1673ffffffffffffffffffffffffffffffffffffffff16815260200190815260200160002060008373ffffffffffffffffffffffffffffffffffffffff1673ffffffffffffffffffffffffffffffffffffffff16815260200190815260200160002060009054906101000a900460ff16905092915050565b611600611813565b73ffffffffffffffffffffffffffffffffffffffff1661161e611176565b73ffffffffffffffffffffffffffffffffffffffff1614611674576040517f08c379a000000000000000000000000000000000000000000000000000000000815260040161166b90613813565b60405180910390fd5b600073ffffffffffffffffffffffffffffffffffffffff168173ffffffffffffffffffffffffffffffffffffffff1614156116e4576040517f08c379a00000000000000000000000000000000000000000000000000000000081526004016116db906139f8565b60405180910390fd5b6116ed81612378565b50565b6116f8611813565b73ffffffffffffffffffffffffffffffffffffffff16611716611176565b73ffffffffffffffffffffffffffffffffffffffff161461176c576040517f08c379a000000000000000000000000000000000000000000000000000000000815260040161176390613813565b60405180910390fd5b6117967f6d696e746572000000000000000000000000000000000000000000000000000082610af5565b50565b60007f7965db0b000000000000000000000000000000000000000000000000000000007bffffffffffffffffffffffffffffffffffffffffffffffffffffffff1916827bffffffffffffffffffffffffffffffffffffffffffffffffffffffff1916148061180c575061180b826127b0565b5b9050919050565b600033905090565b60008060009054906101000a90046fffffffffffffffffffffffffffffffff166fffffffffffffffffffffffffffffffff168210801561187c575060036000838152602001908152602001600020600001601c9054906101000a900460ff16155b9050919050565b826005600084815260200190815260200160002060006101000a81548173ffffffffffffffffffffffffffffffffffffffff021916908373ffffffffffffffffffffffffffffffffffffffff160217905550818373ffffffffffffffffffffffffffffffffffffffff168273ffffffffffffffffffffffffffffffffffffffff167f8c5be1e5ebec7d5bd14f71427d1e84f3dd0314c0f7b2291e5b200ac8c7c3b92560405160405180910390a4505050565b6000611940826120d0565b90506000816000015173ffffffffffffffffffffffffffffffffffffffff16611967611813565b73ffffffffffffffffffffffffffffffffffffffff16148061199a57506119998260000151611994611813565b611564565b5b806119df57506119a8611813565b73ffffffffffffffffffffffffffffffffffffffff166119c7846108e9565b73ffffffffffffffffffffffffffffffffffffffff16145b905080611a18576040517f59c896be00000000000000000000000000000000000000000000000000000000815260040160405180910390fd5b8473ffffffffffffffffffffffffffffffffffffffff16826000015173ffffffffffffffffffffffffffffffffffffffff1614611a81576040517fa114810000000000000000000000000000000000000000000000000000000000815260040160405180910390fd5b600073ffffffffffffffffffffffffffffffffffffffff168473ffffffffffffffffffffffffffffffffffffffff161415611ae8576040517fea553b3400000000000000000000000000000000000000000000000000000000815260040160405180910390fd5b611af585858560016128fa565b611b056000848460000151611883565b6001600460008773ffffffffffffffffffffffffffffffffffffffff1673ffffffffffffffffffffffffffffffffffffffff16815260200190815260200160002060000160008282829054906101000a900467ffffffffffffffff160392506101000a81548167ffffffffffffffff021916908367ffffffffffffffff1602179055506001600460008673ffffffffffffffffffffffffffffffffffffffff1673ffffffffffffffffffffffffffffffffffffffff16815260200190815260200160002060000160008282829054906101000a900467ffffffffffffffff160192506101000a81548167ffffffffffffffff021916908367ffffffffffffffff160217905550836003600085815260200190815260200160002060000160006101000a81548173ffffffffffffffffffffffffffffffffffffffff021916908373ffffffffffffffffffffffffffffffffffffffff160217905550426003600085815260200190815260200160002060000160146101000a81548167ffffffffffffffff021916908367ffffffffffffffff1602179055506000600184019050600073ffffffffffffffffffffffffffffffffffffffff166003600083815260200190815260200160002060000160009054906101000a900473ffffffffffffffffffffffffffffffffffffffff1673ffffffffffffffffffffffffffffffffffffffff161415611de25760008054906101000a90046fffffffffffffffffffffffffffffffff166fffffffffffffffffffffffffffffffff16811015611de15782600001516003600083815260200190815260200160002060000160006101000a81548173ffffffffffffffffffffffffffffffffffffffff021916908373ffffffffffffffffffffffffffffffffffffffff16021790555082602001516003600083815260200190815260200160002060000160146101000a81548167ffffffffffffffff021916908367ffffffffffffffff1602179055505b5b50828473ffffffffffffffffffffffffffffffffffffffff168673ffffffffffffffffffffffffffffffffffffffff167fddf252ad1be2c89b69c2b068fc378daa952ba7f163c4a11628f55a4df523b3ef60405160405180910390a4611e4b8585856001612900565b5050505050565b611e5c82826111a0565b611eeb57611e818173ffffffffffffffffffffffffffffffffffffffff166014612906565b611e8f8360001c6020612906565b604051602001611ea0929190613ab0565b6040516020818303038152906040526040517f08c379a0000000000000000000000000000000000000000000000000000000008152600401611ee29190613333565b60405180910390fd5b5050565b611ef982826111a0565b611fcc5760016007600084815260200190815260200160002060000160008373ffffffffffffffffffffffffffffffffffffffff1673ffffffffffffffffffffffffffffffffffffffff16815260200190815260200160002060006101000a81548160ff021916908315150217905550611f71611813565b73ffffffffffffffffffffffffffffffffffffffff168173ffffffffffffffffffffffffffffffffffffffff16837f2f8788117e7eff1d82e926ec794901d17c78024a50270940304540a733656f0d60405160405180910390a45b5050565b611fda82826111a0565b156120ae5760006007600084815260200190815260200160002060000160008373ffffffffffffffffffffffffffffffffffffffff1673ffffffffffffffffffffffffffffffffffffffff16815260200190815260200160002060006101000a81548160ff021916908315150217905550612053611813565b73ffffffffffffffffffffffffffffffffffffffff168173ffffffffffffffffffffffffffffffffffffffff16837ff6391f5c32d9c69d2a47ea670b442974b53935d1edc7fd64eb21e047a839171b60405160405180910390a45b5050565b6120cc828260405180602001604052806000815250612b42565b5050565b6120d8612fed565b600082905060008054906101000a90046fffffffffffffffffffffffffffffffff166fffffffffffffffffffffffffffffffff16811015612341576000600360008381526020019081526020016000206040518060600160405290816000820160009054906101000a900473ffffffffffffffffffffffffffffffffffffffff1673ffffffffffffffffffffffffffffffffffffffff1673ffffffffffffffffffffffffffffffffffffffff1681526020016000820160149054906101000a900467ffffffffffffffff1667ffffffffffffffff1667ffffffffffffffff16815260200160008201601c9054906101000a900460ff1615151515815250509050806040015161233f57600073ffffffffffffffffffffffffffffffffffffffff16816000015173ffffffffffffffffffffffffffffffffffffffff1614612223578092505050612373565b5b60011561233e57818060019003925050600360008381526020019081526020016000206040518060600160405290816000820160009054906101000a900473ffffffffffffffffffffffffffffffffffffffff1673ffffffffffffffffffffffffffffffffffffffff1673ffffffffffffffffffffffffffffffffffffffff1681526020016000820160149054906101000a900467ffffffffffffffff1667ffffffffffffffff1667ffffffffffffffff16815260200160008201601c9054906101000a900460ff1615151515815250509050600073ffffffffffffffffffffffffffffffffffffffff16816000015173ffffffffffffffffffffffffffffffffffffffff1614612339578092505050612373565b612224565b5b505b6040517fdf2d9b4200000000000000000000000000000000000000000000000000000000815260040160405180910390fd5b919050565b6000600860009054906101000a900473ffffffffffffffffffffffffffffffffffffffff16905081600860006101000a81548173ffffffffffffffffffffffffffffffffffffffff021916908373ffffffffffffffffffffffffffffffffffffffff1602179055508173ffffffffffffffffffffffffffffffffffffffff168173ffffffffffffffffffffffffffffffffffffffff167f8be0079c531659141344cd1fd0a4f28419497f9722a3daafe3b4186f6b6457e060405160405180910390a35050565b600061245f8473ffffffffffffffffffffffffffffffffffffffff16612b54565b156125b0578373ffffffffffffffffffffffffffffffffffffffff1663150b7a02612488611813565b8786866040518563ffffffff1660e01b81526004016124aa9493929190613b3f565b6020604051808303816000875af19250505080156124e657506040513d601f19601f820116820180604052508101906124e39190613ba0565b60015b612560573d8060008114612516576040519150601f19603f3d011682016040523d82523d6000602084013e61251b565b606091505b50600081511415612558576040517fd1a57ed600000000000000000000000000000000000000000000000000000000815260040160405180910390fd5b805181602001fd5b63150b7a0260e01b7bffffffffffffffffffffffffffffffffffffffffffffffffffffffff1916817bffffffffffffffffffffffffffffffffffffffffffffffffffffffff1916149150506125b5565b600190505b949350505050565b6060600980546125cc90613862565b80601f01602080910402602001604051908101604052809291908181526020018280546125f890613862565b80156126455780601f1061261a57610100808354040283529160200191612645565b820191906000526020600020905b81548152906001019060200180831161262857829003601f168201915b5050505050905090565b60606000821415612697576040518060400160405280600181526020017f300000000000000000000000000000000000000000000000000000000000000081525090506127ab565b600082905060005b600082146126c95780806126b290613bfc565b915050600a826126c29190613c74565b915061269f565b60008167ffffffffffffffff8111156126e5576126e4613137565b5b6040519080825280601f01601f1916602001820160405280156127175781602001600182028036833780820191505090505b5090505b600085146127a4576001826127309190613ca5565b9150600a8561273f9190613cd9565b603061274b9190613d0a565b60f81b81838151811061276157612760613d60565b5b60200101907effffffffffffffffffffffffffffffffffffffffffffffffffffffffffffff1916908160001a905350600a8561279d9190613c74565b945061271b565b8093505050505b919050565b60007f80ac58cd000000000000000000000000000000000000000000000000000000007bffffffffffffffffffffffffffffffffffffffffffffffffffffffff1916827bffffffffffffffffffffffffffffffffffffffffffffffffffffffff1916148061287b57507f5b5e139f000000000000000000000000000000000000000000000000000000007bffffffffffffffffffffffffffffffffffffffffffffffffffffffff1916827bffffffffffffffffffffffffffffffffffffffffffffffffffffffff1916145b806128e357507f780e9d63000000000000000000000000000000000000000000000000000000007bffffffffffffffffffffffffffffffffffffffffffffffffffffffff1916827bffffffffffffffffffffffffffffffffffffffffffffffffffffffff1916145b806128f357506128f282612b67565b5b9050919050565b50505050565b50505050565b6060600060028360026129199190613d8f565b6129239190613d0a565b67ffffffffffffffff81111561293c5761293b613137565b5b6040519080825280601f01601f19166020018201604052801561296e5781602001600182028036833780820191505090505b5090507f3000000000000000000000000000000000000000000000000000000000000000816000815181106129a6576129a5613d60565b5b60200101907effffffffffffffffffffffffffffffffffffffffffffffffffffffffffffff1916908160001a9053507f780000000000000000000000000000000000000000000000000000000000000081600181518110612a0a57612a09613d60565b5b60200101907effffffffffffffffffffffffffffffffffffffffffffffffffffffffffffff1916908160001a90535060006001846002612a4a9190613d8f565b612a549190613d0a565b90505b6001811115612af4577f3031323334353637383961626364656600000000000000000000000000000000600f861660108110612a9657612a95613d60565b5b1a60f81b828281518110612aad57612aac613d60565b5b60200101907effffffffffffffffffffffffffffffffffffffffffffffffffffffffffffff1916908160001a905350600485901c945080612aed90613de9565b9050612a57565b5060008414612b38576040517f08c379a0000000000000000000000000000000000000000000000000000000008152600401612b2f90613e5f565b60405180910390fd5b8091505092915050565b612b4f8383836001612bd1565b505050565b600080823b905060008111915050919050565b60007f01ffc9a7000000000000000000000000000000000000000000000000000000007bffffffffffffffffffffffffffffffffffffffffffffffffffffffff1916827bffffffffffffffffffffffffffffffffffffffffffffffffffffffff1916149050919050565b60008060009054906101000a90046fffffffffffffffffffffffffffffffff166fffffffffffffffffffffffffffffffff169050600073ffffffffffffffffffffffffffffffffffffffff168573ffffffffffffffffffffffffffffffffffffffff161415612c6c576040517f2e07630000000000000000000000000000000000000000000000000000000000815260040160405180910390fd5b6000841415612ca7576040517fb562e8dd00000000000000000000000000000000000000000000000000000000815260040160405180910390fd5b612cb460008683876128fa565b83600460008773ffffffffffffffffffffffffffffffffffffffff1673ffffffffffffffffffffffffffffffffffffffff16815260200190815260200160002060000160008282829054906101000a900467ffffffffffffffff160192506101000a81548167ffffffffffffffff021916908367ffffffffffffffff16021790555083600460008773ffffffffffffffffffffffffffffffffffffffff1673ffffffffffffffffffffffffffffffffffffffff16815260200190815260200160002060000160088282829054906101000a900467ffffffffffffffff160192506101000a81548167ffffffffffffffff021916908367ffffffffffffffff160217905550846003600083815260200190815260200160002060000160006101000a81548173ffffffffffffffffffffffffffffffffffffffff021916908373ffffffffffffffffffffffffffffffffffffffff160217905550426003600083815260200190815260200160002060000160146101000a81548167ffffffffffffffff021916908367ffffffffffffffff160217905550600081905060005b85811015612f1957818773ffffffffffffffffffffffffffffffffffffffff16600073ffffffffffffffffffffffffffffffffffffffff167fddf252ad1be2c89b69c2b068fc378daa952ba7f163c4a11628f55a4df523b3ef60405160405180910390a4838015612ecd5750612ecb600088848861243e565b155b15612f04576040517fd1a57ed600000000000000000000000000000000000000000000000000000000815260040160405180910390fd5b81806001019250508080600101915050612e52565b50806000806101000a8154816fffffffffffffffffffffffffffffffff02191690836fffffffffffffffffffffffffffffffff16021790555050612f606000868387612900565b5050505050565b828054612f7390613862565b90600052602060002090601f016020900481019282612f955760008555612fdc565b82601f10612fae57805160ff1916838001178555612fdc565b82800160010185558215612fdc579182015b82811115612fdb578251825591602001919060010190612fc0565b5b509050612fe99190613030565b5090565b6040518060600160405280600073ffffffffffffffffffffffffffffffffffffffff168152602001600067ffffffffffffffff1681526020016000151581525090565b5b80821115613049576000816000905550600101613031565b5090565b6000604051905090565b600080fd5b600080fd5b60007fffffffff0000000000000000000000000000000000000000000000000000000082169050919050565b61309681613061565b81146130a157600080fd5b50565b6000813590506130b38161308d565b92915050565b6000602082840312156130cf576130ce613057565b5b60006130dd848285016130a4565b91505092915050565b60008115159050919050565b6130fb816130e6565b82525050565b600060208201905061311660008301846130f2565b92915050565b600080fd5b600080fd5b6000601f19601f8301169050919050565b7f4e487b7100000000000000000000000000000000000000000000000000000000600052604160045260246000fd5b61316f82613126565b810181811067ffffffffffffffff8211171561318e5761318d613137565b5b80604052505050565b60006131a161304d565b90506131ad8282613166565b919050565b600067ffffffffffffffff8211156131cd576131cc613137565b5b6131d682613126565b9050602081019050919050565b82818337600083830152505050565b6000613205613200846131b2565b613197565b90508281526020810184848401111561322157613220613121565b5b61322c8482856131e3565b509392505050565b600082601f8301126132495761324861311c565b5b81356132598482602086016131f2565b91505092915050565b60006020828403121561327857613277613057565b5b600082013567ffffffffffffffff8111156132965761329561305c565b5b6132a284828501613234565b91505092915050565b600081519050919050565b600082825260208201905092915050565b60005b838110156132e55780820151818401526020810190506132ca565b838111156132f4576000848401525b50505050565b6000613305826132ab565b61330f81856132b6565b935061331f8185602086016132c7565b61332881613126565b840191505092915050565b6000602082019050818103600083015261334d81846132fa565b905092915050565b6000819050919050565b61336881613355565b82525050565b6000602082019050613383600083018461335f565b92915050565b6000819050919050565b61339c81613389565b81146133a757600080fd5b50565b6000813590506133b981613393565b92915050565b6000602082840312156133d5576133d4613057565b5b60006133e3848285016133aa565b91505092915050565b600073ffffffffffffffffffffffffffffffffffffffff82169050919050565b6000613417826133ec565b9050919050565b6134278161340c565b82525050565b6000602082019050613442600083018461341e565b92915050565b6134518161340c565b811461345c57600080fd5b50565b60008135905061346e81613448565b92915050565b6000806040838503121561348b5761348a613057565b5b60006134998582860161345f565b92505060206134aa858286016133aa565b9150509250929050565b6134bd81613389565b82525050565b60006020820190506134d860008301846134b4565b92915050565b6000806000606084860312156134f7576134f6613057565b5b60006135058682870161345f565b93505060206135168682870161345f565b9250506040613527868287016133aa565b9150509250925092565b61353a81613355565b811461354557600080fd5b50565b60008135905061355781613531565b92915050565b60006020828403121561357357613572613057565b5b600061358184828501613548565b91505092915050565b600080604083850312156135a1576135a0613057565b5b60006135af85828601613548565b92505060206135c08582860161345f565b9150509250929050565b6000602082840312156135e0576135df613057565b5b60006135ee8482850161345f565b91505092915050565b613600816130e6565b811461360b57600080fd5b50565b60008135905061361d816135f7565b92915050565b6000806040838503121561363a57613639613057565b5b60006136488582860161345f565b92505060206136598582860161360e565b9150509250929050565b600067ffffffffffffffff82111561367e5761367d613137565b5b61368782613126565b9050602081019050919050565b60006136a76136a284613663565b613197565b9050828152602081018484840111156136c3576136c2613121565b5b6136ce8482856131e3565b509392505050565b600082601f8301126136eb576136ea61311c565b5b81356136fb848260208601613694565b91505092915050565b6000806000806080858703121561371e5761371d613057565b5b600061372c8782880161345f565b945050602061373d8782880161345f565b935050604061374e878288016133aa565b925050606085013567ffffffffffffffff81111561376f5761376e61305c565b5b61377b878288016136d6565b91505092959194509250565b6000806040838503121561379e5761379d613057565b5b60006137ac8582860161345f565b92505060206137bd8582860161345f565b9150509250929050565b7f4f776e61626c653a2063616c6c6572206973206e6f7420746865206f776e6572600082015250565b60006137fd6020836132b6565b9150613808826137c7565b602082019050919050565b6000602082019050818103600083015261382c816137f0565b9050919050565b7f4e487b7100000000000000000000000000000000000000000000000000000000600052602260045260246000fd5b6000600282049050600182168061387a57607f821691505b6020821081141561388e5761388d613833565b5b50919050565b7f416363657373436f6e74726f6c3a2063616e206f6e6c792072656e6f756e636560008201527f20726f6c657320666f722073656c660000000000000000000000000000000000602082015250565b60006138f0602f836132b6565b91506138fb82613894565b604082019050919050565b6000602082019050818103600083015261391f816138e3565b9050919050565b600081905092915050565b600061393c826132ab565b6139468185613926565b93506139568185602086016132c7565b80840191505092915050565b600061396e8285613931565b915061397a8284613931565b91508190509392505050565b7f4f776e61626c653a206e6577206f776e657220697320746865207a65726f206160008201527f6464726573730000000000000000000000000000000000000000000000000000602082015250565b60006139e26026836132b6565b91506139ed82613986565b604082019050919050565b60006020820190508181036000830152613a11816139d5565b9050919050565b7f416363657373436f6e74726f6c3a206163636f756e7420000000000000000000600082015250565b6000613a4e601783613926565b9150613a5982613a18565b601782019050919050565b7f206973206d697373696e6720726f6c6520000000000000000000000000000000600082015250565b6000613a9a601183613926565b9150613aa582613a64565b601182019050919050565b6000613abb82613a41565b9150613ac78285613931565b9150613ad282613a8d565b9150613ade8284613931565b91508190509392505050565b600081519050919050565b600082825260208201905092915050565b6000613b1182613aea565b613b1b8185613af5565b9350613b2b8185602086016132c7565b613b3481613126565b840191505092915050565b6000608082019050613b54600083018761341e565b613b61602083018661341e565b613b6e60408301856134b4565b8181036060830152613b808184613b06565b905095945050505050565b600081519050613b9a8161308d565b92915050565b600060208284031215613bb657613bb5613057565b5b6000613bc484828501613b8b565b91505092915050565b7f4e487b7100000000000000000000000000000000000000000000000000000000600052601160045260246000fd5b6000613c0782613389565b91507fffffffffffffffffffffffffffffffffffffffffffffffffffffffffffffffff821415613c3a57613c39613bcd565b5b600182019050919050565b7f4e487b7100000000000000000000000000000000000000000000000000000000600052601260045260246000fd5b6000613c7f82613389565b9150613c8a83613389565b925082613c9a57613c99613c45565b5b828204905092915050565b6000613cb082613389565b9150613cbb83613389565b925082821015613cce57613ccd613bcd565b5b828203905092915050565b6000613ce482613389565b9150613cef83613389565b925082613cff57613cfe613c45565b5b828206905092915050565b6000613d1582613389565b9150613d2083613389565b9250827fffffffffffffffffffffffffffffffffffffffffffffffffffffffffffffffff03821115613d5557613d54613bcd565b5b828201905092915050565b7f4e487b7100000000000000000000000000000000000000000000000000000000600052603260045260246000fd5b6000613d9a82613389565b9150613da583613389565b9250817fffffffffffffffffffffffffffffffffffffffffffffffffffffffffffffffff0483118215151615613dde57613ddd613bcd565b5b828202905092915050565b6000613df482613389565b91506000821415613e0857613e07613bcd565b5b600182039050919050565b7f537472696e67733a20686578206c656e67746820696e73756666696369656e74600082015250565b6000613e496020836132b6565b9150613e5482613e13565b602082019050919050565b60006020820190508181036000830152613e7881613e3c565b905091905056fea26469706673582212208f2ec93289bb94a38af5976e9448e777a3f790c6126ddbd3b024bed896b4a45c64736f6c634300080b0033",
  "devdoc": {
    "kind": "dev",
    "methods": {
      "approve(address,uint256)": {
        "details": "See {IERC721-approve}."
      },
      "balanceOf(address)": {
        "details": "See {IERC721-balanceOf}."
      },
      "getApproved(uint256)": {
        "details": "See {IERC721-getApproved}."
      },
      "getRoleAdmin(bytes32)": {
        "details": "Returns the admin role that controls `role`. See {grantRole} and {revokeRole}. To change a role's admin, use {_setRoleAdmin}."
      },
      "grantRole(bytes32,address)": {
        "details": "Grants `role` to `account`. If `account` had not been already granted `role`, emits a {RoleGranted} event. Requirements: - the caller must have ``role``'s admin role."
      },
      "hasRole(bytes32,address)": {
        "details": "Returns `true` if `account` has been granted `role`."
      },
      "isApprovedForAll(address,address)": {
        "details": "See {IERC721-isApprovedForAll}."
      },
      "mint(address,uint256)": {
        "details": "mint",
        "params": {
          "quantity": "amount to mint"
        }
      },
      "name()": {
        "details": "See {IERC721Metadata-name}."
      },
      "owner()": {
        "details": "Returns the address of the current owner."
      },
      "ownerOf(uint256)": {
        "details": "See {IERC721-ownerOf}."
      },
      "renounceOwnership()": {
        "details": "Leaves the contract without owner. It will not be possible to call `onlyOwner` functions anymore. Can only be called by the current owner. NOTE: Renouncing ownership will leave the contract without an owner, thereby removing any functionality that is only available to the owner."
      },
      "renounceRole(bytes32,address)": {
        "details": "Revokes `role` from the calling account. Roles are often managed via {grantRole} and {revokeRole}: this function's purpose is to provide a mechanism for accounts to lose their privileges if they are compromised (such as when a trusted device is misplaced). If the calling account had been revoked `role`, emits a {RoleRevoked} event. Requirements: - the caller must be `account`."
      },
      "revokeMinter(address)": {
        "details": "revoke minter address",
        "params": {
          "_minter": "minter address"
        }
      },
      "revokeRole(bytes32,address)": {
        "details": "Revokes `role` from `account`. If `account` had been granted `role`, emits a {RoleRevoked} event. Requirements: - the caller must have ``role``'s admin role."
      },
      "safeTransferFrom(address,address,uint256)": {
        "details": "See {IERC721-safeTransferFrom}."
      },
      "safeTransferFrom(address,address,uint256,bytes)": {
        "details": "See {IERC721-safeTransferFrom}."
      },
      "setApprovalForAll(address,bool)": {
        "details": "See {IERC721-setApprovalForAll}."
      },
      "setMinter(address)": {
        "details": "set minter address",
        "params": {
          "_minter": "minter address"
        }
      },
      "symbol()": {
        "details": "See {IERC721Metadata-symbol}."
      },
      "tokenByIndex(uint256)": {
        "details": "See {IERC721Enumerable-tokenByIndex}. This read function is O(totalSupply). If calling from a separate contract, be sure to test gas first. It may also degrade with extremely large collection sizes (e.g >> 10000), test for your use case."
      },
      "tokenOfOwnerByIndex(address,uint256)": {
        "details": "See {IERC721Enumerable-tokenOfOwnerByIndex}. This read function is O(totalSupply). If calling from a separate contract, be sure to test gas first. It may also degrade with extremely large collection sizes (e.g >> 10000), test for your use case."
      },
      "tokenURI(uint256)": {
        "details": "See {IERC721Metadata-tokenURI}."
      },
      "totalSupply()": {
        "details": "See {IERC721Enumerable-totalSupply}."
      },
      "transferFrom(address,address,uint256)": {
        "details": "See {IERC721-transferFrom}."
      },
      "transferOwnership(address)": {
        "details": "Transfers ownership of the contract to a new account (`newOwner`). Can only be called by the current owner."
      }
    },
    "version": 1
  },
  "userdoc": {
    "kind": "user",
    "methods": {},
    "version": 1
  },
  "storageLayout": {
    "storage": [
      {
        "astId": 1782,
        "contract": "contracts/PenguinNFT.sol:PenguinNFT",
        "label": "_currentIndex",
        "offset": 0,
        "slot": "0",
        "type": "t_uint128"
      },
      {
        "astId": 1784,
        "contract": "contracts/PenguinNFT.sol:PenguinNFT",
        "label": "_burnCounter",
        "offset": 16,
        "slot": "0",
        "type": "t_uint128"
      },
      {
        "astId": 1786,
        "contract": "contracts/PenguinNFT.sol:PenguinNFT",
        "label": "_name",
        "offset": 0,
        "slot": "1",
        "type": "t_string_storage"
      },
      {
        "astId": 1788,
        "contract": "contracts/PenguinNFT.sol:PenguinNFT",
        "label": "_symbol",
        "offset": 0,
        "slot": "2",
        "type": "t_string_storage"
      },
      {
        "astId": 1793,
        "contract": "contracts/PenguinNFT.sol:PenguinNFT",
        "label": "_ownerships",
        "offset": 0,
        "slot": "3",
        "type": "t_mapping(t_uint256,t_struct(TokenOwnership)1773_storage)"
      },
      {
        "astId": 1798,
        "contract": "contracts/PenguinNFT.sol:PenguinNFT",
        "label": "_addressData",
        "offset": 0,
        "slot": "4",
        "type": "t_mapping(t_address,t_struct(AddressData)1780_storage)"
      },
      {
        "astId": 1802,
        "contract": "contracts/PenguinNFT.sol:PenguinNFT",
        "label": "_tokenApprovals",
        "offset": 0,
        "slot": "5",
        "type": "t_mapping(t_uint256,t_address)"
      },
      {
        "astId": 1808,
        "contract": "contracts/PenguinNFT.sol:PenguinNFT",
        "label": "_operatorApprovals",
        "offset": 0,
        "slot": "6",
        "type": "t_mapping(t_address,t_mapping(t_address,t_bool))"
      },
      {
        "astId": 24,
        "contract": "contracts/PenguinNFT.sol:PenguinNFT",
        "label": "_roles",
        "offset": 0,
        "slot": "7",
        "type": "t_mapping(t_bytes32,t_struct(RoleData)19_storage)"
      },
      {
        "astId": 389,
        "contract": "contracts/PenguinNFT.sol:PenguinNFT",
        "label": "_owner",
        "offset": 0,
        "slot": "8",
        "type": "t_address"
      },
      {
        "astId": 1610,
        "contract": "contracts/PenguinNFT.sol:PenguinNFT",
        "label": "baseURI",
        "offset": 0,
        "slot": "9",
        "type": "t_string_storage"
      }
    ],
    "types": {
      "t_address": {
        "encoding": "inplace",
        "label": "address",
        "numberOfBytes": "20"
      },
      "t_bool": {
        "encoding": "inplace",
        "label": "bool",
        "numberOfBytes": "1"
      },
      "t_bytes32": {
        "encoding": "inplace",
        "label": "bytes32",
        "numberOfBytes": "32"
      },
      "t_mapping(t_address,t_bool)": {
        "encoding": "mapping",
        "key": "t_address",
        "label": "mapping(address => bool)",
        "numberOfBytes": "32",
        "value": "t_bool"
      },
      "t_mapping(t_address,t_mapping(t_address,t_bool))": {
        "encoding": "mapping",
        "key": "t_address",
        "label": "mapping(address => mapping(address => bool))",
        "numberOfBytes": "32",
        "value": "t_mapping(t_address,t_bool)"
      },
      "t_mapping(t_address,t_struct(AddressData)1780_storage)": {
        "encoding": "mapping",
        "key": "t_address",
        "label": "mapping(address => struct ERC721A.AddressData)",
        "numberOfBytes": "32",
        "value": "t_struct(AddressData)1780_storage"
      },
      "t_mapping(t_bytes32,t_struct(RoleData)19_storage)": {
        "encoding": "mapping",
        "key": "t_bytes32",
        "label": "mapping(bytes32 => struct AccessControl.RoleData)",
        "numberOfBytes": "32",
        "value": "t_struct(RoleData)19_storage"
      },
      "t_mapping(t_uint256,t_address)": {
        "encoding": "mapping",
        "key": "t_uint256",
        "label": "mapping(uint256 => address)",
        "numberOfBytes": "32",
        "value": "t_address"
      },
      "t_mapping(t_uint256,t_struct(TokenOwnership)1773_storage)": {
        "encoding": "mapping",
        "key": "t_uint256",
        "label": "mapping(uint256 => struct ERC721A.TokenOwnership)",
        "numberOfBytes": "32",
        "value": "t_struct(TokenOwnership)1773_storage"
      },
      "t_string_storage": {
        "encoding": "bytes",
        "label": "string",
        "numberOfBytes": "32"
      },
      "t_struct(AddressData)1780_storage": {
        "encoding": "inplace",
        "label": "struct ERC721A.AddressData",
        "members": [
          {
            "astId": 1775,
            "contract": "contracts/PenguinNFT.sol:PenguinNFT",
            "label": "balance",
            "offset": 0,
            "slot": "0",
            "type": "t_uint64"
          },
          {
            "astId": 1777,
            "contract": "contracts/PenguinNFT.sol:PenguinNFT",
            "label": "numberMinted",
            "offset": 8,
            "slot": "0",
            "type": "t_uint64"
          },
          {
            "astId": 1779,
            "contract": "contracts/PenguinNFT.sol:PenguinNFT",
            "label": "numberBurned",
            "offset": 16,
            "slot": "0",
            "type": "t_uint64"
          }
        ],
        "numberOfBytes": "32"
      },
      "t_struct(RoleData)19_storage": {
        "encoding": "inplace",
        "label": "struct AccessControl.RoleData",
        "members": [
          {
            "astId": 16,
            "contract": "contracts/PenguinNFT.sol:PenguinNFT",
            "label": "members",
            "offset": 0,
            "slot": "0",
            "type": "t_mapping(t_address,t_bool)"
          },
          {
            "astId": 18,
            "contract": "contracts/PenguinNFT.sol:PenguinNFT",
            "label": "adminRole",
            "offset": 0,
            "slot": "1",
            "type": "t_bytes32"
          }
        ],
        "numberOfBytes": "64"
      },
      "t_struct(TokenOwnership)1773_storage": {
        "encoding": "inplace",
        "label": "struct ERC721A.TokenOwnership",
        "members": [
          {
            "astId": 1768,
            "contract": "contracts/PenguinNFT.sol:PenguinNFT",
            "label": "addr",
            "offset": 0,
            "slot": "0",
            "type": "t_address"
          },
          {
            "astId": 1770,
            "contract": "contracts/PenguinNFT.sol:PenguinNFT",
            "label": "startTimestamp",
            "offset": 20,
            "slot": "0",
            "type": "t_uint64"
          },
          {
            "astId": 1772,
            "contract": "contracts/PenguinNFT.sol:PenguinNFT",
            "label": "burned",
            "offset": 28,
            "slot": "0",
            "type": "t_bool"
          }
        ],
        "numberOfBytes": "32"
      },
      "t_uint128": {
        "encoding": "inplace",
        "label": "uint128",
        "numberOfBytes": "16"
      },
      "t_uint256": {
        "encoding": "inplace",
        "label": "uint256",
        "numberOfBytes": "32"
      },
      "t_uint64": {
        "encoding": "inplace",
        "label": "uint64",
        "numberOfBytes": "8"
      }
    }
  }
}