{
  "address": "0x330ceed8e9fc1c5051389fe435c8574a22efd6b2",
  "abi": [
    {
      "inputs": [
        {
          "internalType": "uint256",
          "name": "maxSupply_",
          "type": "uint256"
        }
      ],
      "stateMutability": "nonpayable",
      "type": "constructor"
    },
    {
      "anonymous": false,
      "inputs": [
        {
          "indexed": true,
          "internalType": "address",
          "name": "owner",
          "type": "address"
        },
        {
          "indexed": true,
          "internalType": "address",
          "name": "approved",
          "type": "address"
        },
        {
          "indexed": true,
          "internalType": "uint256",
          "name": "tokenId",
          "type": "uint256"
        }
      ],
      "name": "Approval",
      "type": "event"
    },
    {
      "anonymous": false,
      "inputs": [
        {
          "indexed": true,
          "internalType": "address",
          "name": "owner",
          "type": "address"
        },
        {
          "indexed": true,
          "internalType": "address",
          "name": "operator",
          "type": "address"
        },
        {
          "indexed": false,
          "internalType": "bool",
          "name": "approved",
          "type": "bool"
        }
      ],
      "name": "ApprovalForAll",
      "type": "event"
    },
    {
      "anonymous": false,
      "inputs": [
        {
          "indexed": true,
          "internalType": "address",
          "name": "previousOwner",
          "type": "address"
        },
        {
          "indexed": true,
          "internalType": "address",
          "name": "newOwner",
          "type": "address"
        }
      ],
      "name": "OwnershipTransferred",
      "type": "event"
    },
    {
      "anonymous": false,
      "inputs": [
        {
          "indexed": true,
          "internalType": "bytes32",
          "name": "role",
          "type": "bytes32"
        },
        {
          "indexed": true,
          "internalType": "bytes32",
          "name": "previousAdminRole",
          "type": "bytes32"
        },
        {
          "indexed": true,
          "internalType": "bytes32",
          "name": "newAdminRole",
          "type": "bytes32"
        }
      ],
      "name": "RoleAdminChanged",
      "type": "event"
    },
    {
      "anonymous": false,
      "inputs": [
        {
          "indexed": true,
          "internalType": "bytes32",
          "name": "role",
          "type": "bytes32"
        },
        {
          "indexed": true,
          "internalType": "address",
          "name": "account",
          "type": "address"
        },
        {
          "indexed": true,
          "internalType": "address",
          "name": "sender",
          "type": "address"
        }
      ],
      "name": "RoleGranted",
      "type": "event"
    },
    {
      "anonymous": false,
      "inputs": [
        {
          "indexed": true,
          "internalType": "bytes32",
          "name": "role",
          "type": "bytes32"
        },
        {
          "indexed": true,
          "internalType": "address",
          "name": "account",
          "type": "address"
        },
        {
          "indexed": true,
          "internalType": "address",
          "name": "sender",
          "type": "address"
        }
      ],
      "name": "RoleRevoked",
      "type": "event"
    },
    {
      "anonymous": false,
      "inputs": [
        {
          "indexed": true,
          "internalType": "address",
          "name": "from",
          "type": "address"
        },
        {
          "indexed": true,
          "internalType": "address",
          "name": "to",
          "type": "address"
        },
        {
          "indexed": true,
          "internalType": "uint256",
          "name": "tokenId",
          "type": "uint256"
        }
      ],
      "name": "Transfer",
      "type": "event"
    },
    {
      "inputs": [],
      "name": "DEFAULT_ADMIN_ROLE",
      "outputs": [
        {
          "internalType": "bytes32",
          "name": "",
          "type": "bytes32"
        }
      ],
      "stateMutability": "view",
      "type": "function"
    },
    {
      "inputs": [],
      "name": "MINTER_ROLE",
      "outputs": [
        {
          "internalType": "bytes32",
          "name": "",
          "type": "bytes32"
        }
      ],
      "stateMutability": "view",
      "type": "function"
    },
    {
      "inputs": [
        {
          "internalType": "address",
          "name": "to",
          "type": "address"
        },
        {
          "internalType": "uint256",
          "name": "tokenId",
          "type": "uint256"
        }
      ],
      "name": "approve",
      "outputs": [],
      "stateMutability": "nonpayable",
      "type": "function"
    },
    {
      "inputs": [
        {
          "internalType": "address",
          "name": "owner",
          "type": "address"
        }
      ],
      "name": "balanceOf",
      "outputs": [
        {
          "internalType": "uint256",
          "name": "",
          "type": "uint256"
        }
      ],
      "stateMutability": "view",
      "type": "function"
    },
    {
      "inputs": [],
      "name": "baseURI",
      "outputs": [
        {
          "internalType": "string",
          "name": "",
          "type": "string"
        }
      ],
      "stateMutability": "view",
      "type": "function"
    },
    {
      "inputs": [
        {
          "internalType": "uint256",
          "name": "tokenId",
          "type": "uint256"
        }
      ],
      "name": "getApproved",
      "outputs": [
        {
          "internalType": "address",
          "name": "",
          "type": "address"
        }
      ],
      "stateMutability": "view",
      "type": "function"
    },
    {
      "inputs": [
        {
          "internalType": "bytes32",
          "name": "role",
          "type": "bytes32"
        }
      ],
      "name": "getRoleAdmin",
      "outputs": [
        {
          "internalType": "bytes32",
          "name": "",
          "type": "bytes32"
        }
      ],
      "stateMutability": "view",
      "type": "function"
    },
    {
      "inputs": [
        {
          "internalType": "bytes32",
          "name": "role",
          "type": "bytes32"
        },
        {
          "internalType": "address",
          "name": "account",
          "type": "address"
        }
      ],
      "name": "grantRole",
      "outputs": [],
      "stateMutability": "nonpayable",
      "type": "function"
    },
    {
      "inputs": [
        {
          "internalType": "bytes32",
          "name": "role",
          "type": "bytes32"
        },
        {
          "internalType": "address",
          "name": "account",
          "type": "address"
        }
      ],
      "name": "hasRole",
      "outputs": [
        {
          "internalType": "bool",
          "name": "",
          "type": "bool"
        }
      ],
      "stateMutability": "view",
      "type": "function"
    },
    {
      "inputs": [
        {
          "internalType": "address",
          "name": "owner",
          "type": "address"
        },
        {
          "internalType": "address",
          "name": "operator",
          "type": "address"
        }
      ],
      "name": "isApprovedForAll",
      "outputs": [
        {
          "internalType": "bool",
          "name": "",
          "type": "bool"
        }
      ],
      "stateMutability": "view",
      "type": "function"
    },
    {
      "inputs": [],
      "name": "maxSupply",
      "outputs": [
        {
          "internalType": "uint256",
          "name": "",
          "type": "uint256"
        }
      ],
      "stateMutability": "view",
      "type": "function"
    },
    {
      "inputs": [
        {
          "internalType": "address",
          "name": "user",
          "type": "address"
        },
        {
          "internalType": "uint256",
          "name": "id",
          "type": "uint256"
        }
      ],
      "name": "mint",
      "outputs": [],
      "stateMutability": "payable",
      "type": "function"
    },
    {
      "inputs": [],
      "name": "minted",
      "outputs": [
        {
          "internalType": "uint256",
          "name": "",
          "type": "uint256"
        }
      ],
      "stateMutability": "view",
      "type": "function"
    },
    {
      "inputs": [],
      "name": "name",
      "outputs": [
        {
          "internalType": "string",
          "name": "",
          "type": "string"
        }
      ],
      "stateMutability": "view",
      "type": "function"
    },
    {
      "inputs": [],
      "name": "owner",
      "outputs": [
        {
          "internalType": "address",
          "name": "",
          "type": "address"
        }
      ],
      "stateMutability": "view",
      "type": "function"
    },
    {
      "inputs": [
        {
          "internalType": "uint256",
          "name": "tokenId",
          "type": "uint256"
        }
      ],
      "name": "ownerOf",
      "outputs": [
        {
          "internalType": "address",
          "name": "",
          "type": "address"
        }
      ],
      "stateMutability": "view",
      "type": "function"
    },
    {
      "inputs": [],
      "name": "renounceOwnership",
      "outputs": [],
      "stateMutability": "nonpayable",
      "type": "function"
    },
    {
      "inputs": [
        {
          "internalType": "bytes32",
          "name": "role",
          "type": "bytes32"
        },
        {
          "internalType": "address",
          "name": "account",
          "type": "address"
        }
      ],
      "name": "renounceRole",
      "outputs": [],
      "stateMutability": "nonpayable",
      "type": "function"
    },
    {
      "inputs": [
        {
          "internalType": "address",
          "name": "_minter",
          "type": "address"
        }
      ],
      "name": "revokeMinter",
      "outputs": [],
      "stateMutability": "nonpayable",
      "type": "function"
    },
    {
      "inputs": [
        {
          "internalType": "bytes32",
          "name": "role",
          "type": "bytes32"
        },
        {
          "internalType": "address",
          "name": "account",
          "type": "address"
        }
      ],
      "name": "revokeRole",
      "outputs": [],
      "stateMutability": "nonpayable",
      "type": "function"
    },
    {
      "inputs": [
        {
          "internalType": "address",
          "name": "from",
          "type": "address"
        },
        {
          "internalType": "address",
          "name": "to",
          "type": "address"
        },
        {
          "internalType": "uint256",
          "name": "tokenId",
          "type": "uint256"
        }
      ],
      "name": "safeTransferFrom",
      "outputs": [],
      "stateMutability": "nonpayable",
      "type": "function"
    },
    {
      "inputs": [
        {
          "internalType": "address",
          "name": "from",
          "type": "address"
        },
        {
          "internalType": "address",
          "name": "to",
          "type": "address"
        },
        {
          "internalType": "uint256",
          "name": "tokenId",
          "type": "uint256"
        },
        {
          "internalType": "bytes",
          "name": "_data",
          "type": "bytes"
        }
      ],
      "name": "safeTransferFrom",
      "outputs": [],
      "stateMutability": "nonpayable",
      "type": "function"
    },
    {
      "inputs": [
        {
          "internalType": "address",
          "name": "operator",
          "type": "address"
        },
        {
          "internalType": "bool",
          "name": "approved",
          "type": "bool"
        }
      ],
      "name": "setApprovalForAll",
      "outputs": [],
      "stateMutability": "nonpayable",
      "type": "function"
    },
    {
      "inputs": [
        {
          "internalType": "uint256",
          "name": "maxSupply_",
          "type": "uint256"
        }
      ],
      "name": "setMaxSupply",
      "outputs": [],
      "stateMutability": "nonpayable",
      "type": "function"
    },
    {
      "inputs": [
        {
          "internalType": "address",
          "name": "_minter",
          "type": "address"
        }
      ],
      "name": "setMinter",
      "outputs": [],
      "stateMutability": "nonpayable",
      "type": "function"
    },
    {
      "inputs": [
        {
          "internalType": "string",
          "name": "uri",
          "type": "string"
        }
      ],
      "name": "setURI",
      "outputs": [],
      "stateMutability": "nonpayable",
      "type": "function"
    },
    {
      "inputs": [
        {
          "internalType": "bytes4",
          "name": "interfaceId",
          "type": "bytes4"
        }
      ],
      "name": "supportsInterface",
      "outputs": [
        {
          "internalType": "bool",
          "name": "",
          "type": "bool"
        }
      ],
      "stateMutability": "view",
      "type": "function"
    },
    {
      "inputs": [],
      "name": "symbol",
      "outputs": [
        {
          "internalType": "string",
          "name": "",
          "type": "string"
        }
      ],
      "stateMutability": "view",
      "type": "function"
    },
    {
      "inputs": [
        {
          "internalType": "uint256",
          "name": "tokenId",
          "type": "uint256"
        }
      ],
      "name": "tokenURI",
      "outputs": [
        {
          "internalType": "string",
          "name": "",
          "type": "string"
        }
      ],
      "stateMutability": "view",
      "type": "function"
    },
    {
      "inputs": [
        {
          "internalType": "address",
          "name": "from",
          "type": "address"
        },
        {
          "internalType": "address",
          "name": "to",
          "type": "address"
        },
        {
          "internalType": "uint256",
          "name": "tokenId",
          "type": "uint256"
        }
      ],
      "name": "transferFrom",
      "outputs": [],
      "stateMutability": "nonpayable",
      "type": "function"
    },
    {
      "inputs": [
        {
          "internalType": "address",
          "name": "newOwner",
          "type": "address"
        }
      ],
      "name": "transferOwnership",
      "outputs": [],
      "stateMutability": "nonpayable",
      "type": "function"
    }
  ],
  "transactionHash": "0x536b7b562b694fa32264ccc69a3e1a8f9edc3afdc302ac22310e12145204979e",
  "args": [
    10000
  ],
  "numDeployments": 1,
  "solcInputHash": "0dcefe6c0836d9a1fc88857323ac1703",
  "bytecode": "0x60806040526040518060400160405280601d81526020017f68747470733a2f2f6d696e742d70656e6775696e6b6172742e636f6d2f000000815250600890805190602001906200005192919062000393565b503480156200005f57600080fd5b506040516200426238038062004262833981810160405281019062000085919062000483565b6040518060400160405280600f81526020017f47656e657369732050656e6775696e00000000000000000000000000000000008152506040518060400160405280600281526020017f475000000000000000000000000000000000000000000000000000000000000081525081600090805190602001906200010992919062000393565b5080600190805190602001906200012292919062000393565b50505062000145620001396200016860201b60201c565b6200017060201b60201c565b6200015a6000801b336200023660201b60201c565b80600a81905550506200051a565b600033905090565b6000600760009054906101000a900473ffffffffffffffffffffffffffffffffffffffff16905081600760006101000a81548173ffffffffffffffffffffffffffffffffffffffff021916908373ffffffffffffffffffffffffffffffffffffffff1602179055508173ffffffffffffffffffffffffffffffffffffffff168173ffffffffffffffffffffffffffffffffffffffff167f8be0079c531659141344cd1fd0a4f28419497f9722a3daafe3b4186f6b6457e060405160405180910390a35050565b6200024882826200032860201b60201c565b620003245760016006600084815260200190815260200160002060000160008373ffffffffffffffffffffffffffffffffffffffff1673ffffffffffffffffffffffffffffffffffffffff16815260200190815260200160002060006101000a81548160ff021916908315150217905550620002c96200016860201b60201c565b73ffffffffffffffffffffffffffffffffffffffff168173ffffffffffffffffffffffffffffffffffffffff16837f2f8788117e7eff1d82e926ec794901d17c78024a50270940304540a733656f0d60405160405180910390a45b5050565b60006006600084815260200190815260200160002060000160008373ffffffffffffffffffffffffffffffffffffffff1673ffffffffffffffffffffffffffffffffffffffff16815260200190815260200160002060009054906101000a900460ff16905092915050565b828054620003a190620004e4565b90600052602060002090601f016020900481019282620003c5576000855562000411565b82601f10620003e057805160ff191683800117855562000411565b8280016001018555821562000411579182015b8281111562000410578251825591602001919060010190620003f3565b5b50905062000420919062000424565b5090565b5b808211156200043f57600081600090555060010162000425565b5090565b600080fd5b6000819050919050565b6200045d8162000448565b81146200046957600080fd5b50565b6000815190506200047d8162000452565b92915050565b6000602082840312156200049c576200049b62000443565b5b6000620004ac848285016200046c565b91505092915050565b7f4e487b7100000000000000000000000000000000000000000000000000000000600052602260045260246000fd5b60006002820490506001821680620004fd57607f821691505b60208210811415620005145762000513620004b5565b5b50919050565b613d38806200052a6000396000f3fe6080604052600436106101d85760003560e01c806370a0823111610102578063c87b56dd11610095578063d5abeb0111610064578063d5abeb01146106ab578063e985e9c5146106d6578063f2fde38b14610713578063fca3b5aa1461073c576101d8565b8063c87b56dd146105f1578063cfbd48851461062e578063d539139314610657578063d547741f14610682576101d8565b806395d89b41116100d157806395d89b4114610549578063a217fddf14610574578063a22cb4651461059f578063b88d4fde146105c8576101d8565b806370a082311461048d578063715018a6146104ca5780638da5cb5b146104e157806391d148541461050c576101d8565b80632f2ff15d1161017a5780634f02c420116101495780634f02c420146103d15780636352211e146103fc5780636c0360eb146104395780636f8b44b014610464576101d8565b80632f2ff15d1461033a57806336568abe1461036357806340c10f191461038c57806342842e0e146103a8576101d8565b8063081812fc116101b6578063081812fc1461026e578063095ea7b3146102ab57806323b872dd146102d4578063248a9ca3146102fd576101d8565b806301ffc9a7146101dd57806302fe53051461021a57806306fdde0314610243575b600080fd5b3480156101e957600080fd5b5061020460048036038101906101ff9190612746565b610765565b604051610211919061278e565b60405180910390f35b34801561022657600080fd5b50610241600480360381019061023c91906128ef565b610777565b005b34801561024f57600080fd5b506102586107a7565b60405161026591906129c0565b60405180910390f35b34801561027a57600080fd5b5061029560048036038101906102909190612a18565b610839565b6040516102a29190612a86565b60405180910390f35b3480156102b757600080fd5b506102d260048036038101906102cd9190612acd565b6108be565b005b3480156102e057600080fd5b506102fb60048036038101906102f69190612b0d565b6109d6565b005b34801561030957600080fd5b50610324600480360381019061031f9190612b96565b610a36565b6040516103319190612bd2565b60405180910390f35b34801561034657600080fd5b50610361600480360381019061035c9190612bed565b610a56565b005b34801561036f57600080fd5b5061038a60048036038101906103859190612bed565b610a7f565b005b6103a660048036038101906103a19190612acd565b610b02565b005b3480156103b457600080fd5b506103cf60048036038101906103ca9190612b0d565b610ba3565b005b3480156103dd57600080fd5b506103e6610bc3565b6040516103f39190612c3c565b60405180910390f35b34801561040857600080fd5b50610423600480360381019061041e9190612a18565b610bc9565b6040516104309190612a86565b60405180910390f35b34801561044557600080fd5b5061044e610c7b565b60405161045b91906129c0565b60405180910390f35b34801561047057600080fd5b5061048b60048036038101906104869190612a18565b610d09565b005b34801561049957600080fd5b506104b460048036038101906104af9190612c57565b610d29565b6040516104c19190612c3c565b60405180910390f35b3480156104d657600080fd5b506104df610de1565b005b3480156104ed57600080fd5b506104f6610e69565b6040516105039190612a86565b60405180910390f35b34801561051857600080fd5b50610533600480360381019061052e9190612bed565b610e93565b604051610540919061278e565b60405180910390f35b34801561055557600080fd5b5061055e610efe565b60405161056b91906129c0565b60405180910390f35b34801561058057600080fd5b50610589610f90565b6040516105969190612bd2565b60405180910390f35b3480156105ab57600080fd5b506105c660048036038101906105c19190612cb0565b610f97565b005b3480156105d457600080fd5b506105ef60048036038101906105ea9190612d91565b610fad565b005b3480156105fd57600080fd5b5061061860048036038101906106139190612a18565b61100f565b60405161062591906129c0565b60405180910390f35b34801561063a57600080fd5b5061065560048036038101906106509190612c57565b6110b6565b005b34801561066357600080fd5b5061066c6110e3565b6040516106799190612bd2565b60405180910390f35b34801561068e57600080fd5b506106a960048036038101906106a49190612bed565b611107565b005b3480156106b757600080fd5b506106c0611130565b6040516106cd9190612c3c565b60405180910390f35b3480156106e257600080fd5b506106fd60048036038101906106f89190612e14565b611136565b60405161070a919061278e565b60405180910390f35b34801561071f57600080fd5b5061073a60048036038101906107359190612c57565b6111ca565b005b34801561074857600080fd5b50610763600480360381019061075e9190612c57565b6112c2565b005b600061077082611305565b9050919050565b6000801b61078c8161078761137f565b611387565b81600890805190602001906107a2929190612637565b505050565b6060600080546107b690612e83565b80601f01602080910402602001604051908101604052809291908181526020018280546107e290612e83565b801561082f5780601f106108045761010080835404028352916020019161082f565b820191906000526020600020905b81548152906001019060200180831161081257829003601f168201915b5050505050905090565b600061084482611424565b610883576040517f08c379a000000000000000000000000000000000000000000000000000000000815260040161087a90612f27565b60405180910390fd5b6004600083815260200190815260200160002060009054906101000a900473ffffffffffffffffffffffffffffffffffffffff169050919050565b60006108c982610bc9565b90508073ffffffffffffffffffffffffffffffffffffffff168373ffffffffffffffffffffffffffffffffffffffff16141561093a576040517f08c379a000000000000000000000000000000000000000000000000000000000815260040161093190612fb9565b60405180910390fd5b8073ffffffffffffffffffffffffffffffffffffffff1661095961137f565b73ffffffffffffffffffffffffffffffffffffffff16148061098857506109878161098261137f565b611136565b5b6109c7576040517f08c379a00000000000000000000000000000000000000000000000000000000081526004016109be9061304b565b60405180910390fd5b6109d18383611490565b505050565b6109e76109e161137f565b82611549565b610a26576040517f08c379a0000000000000000000000000000000000000000000000000000000008152600401610a1d906130dd565b60405180910390fd5b610a31838383611627565b505050565b600060066000838152602001908152602001600020600101549050919050565b610a5f82610a36565b610a7081610a6b61137f565b611387565b610a7a8383611883565b505050565b610a8761137f565b73ffffffffffffffffffffffffffffffffffffffff168173ffffffffffffffffffffffffffffffffffffffff1614610af4576040517f08c379a0000000000000000000000000000000000000000000000000000000008152600401610aeb9061316f565b60405180910390fd5b610afe8282611964565b5050565b7f9f2df0fed2c77648de5860a4cc508cd0818c85b8b8a1ab4ceeef8d981c8956a6610b3481610b2f61137f565b611387565b600a5460095410610b7a576040517f08c379a0000000000000000000000000000000000000000000000000000000008152600401610b71906131db565b60405180910390fd5b610b848383611a46565b600160096000828254610b97919061322a565b92505081905550505050565b610bbe83838360405180602001604052806000815250610fad565b505050565b60095481565b6000806002600084815260200190815260200160002060009054906101000a900473ffffffffffffffffffffffffffffffffffffffff169050600073ffffffffffffffffffffffffffffffffffffffff168173ffffffffffffffffffffffffffffffffffffffff161415610c72576040517f08c379a0000000000000000000000000000000000000000000000000000000008152600401610c69906132f2565b60405180910390fd5b80915050919050565b60088054610c8890612e83565b80601f0160208091040260200160405190810160405280929190818152602001828054610cb490612e83565b8015610d015780601f10610cd657610100808354040283529160200191610d01565b820191906000526020600020905b815481529060010190602001808311610ce457829003601f168201915b505050505081565b6000801b610d1e81610d1961137f565b611387565b81600a819055505050565b60008073ffffffffffffffffffffffffffffffffffffffff168273ffffffffffffffffffffffffffffffffffffffff161415610d9a576040517f08c379a0000000000000000000000000000000000000000000000000000000008152600401610d9190613384565b60405180910390fd5b600360008373ffffffffffffffffffffffffffffffffffffffff1673ffffffffffffffffffffffffffffffffffffffff168152602001908152602001600020549050919050565b610de961137f565b73ffffffffffffffffffffffffffffffffffffffff16610e07610e69565b73ffffffffffffffffffffffffffffffffffffffff1614610e5d576040517f08c379a0000000000000000000000000000000000000000000000000000000008152600401610e54906133f0565b60405180910390fd5b610e676000611a64565b565b6000600760009054906101000a900473ffffffffffffffffffffffffffffffffffffffff16905090565b60006006600084815260200190815260200160002060000160008373ffffffffffffffffffffffffffffffffffffffff1673ffffffffffffffffffffffffffffffffffffffff16815260200190815260200160002060009054906101000a900460ff16905092915050565b606060018054610f0d90612e83565b80601f0160208091040260200160405190810160405280929190818152602001828054610f3990612e83565b8015610f865780601f10610f5b57610100808354040283529160200191610f86565b820191906000526020600020905b815481529060010190602001808311610f6957829003601f168201915b5050505050905090565b6000801b81565b610fa9610fa261137f565b8383611b2a565b5050565b610fbe610fb861137f565b83611549565b610ffd576040517f08c379a0000000000000000000000000000000000000000000000000000000008152600401610ff4906130dd565b60405180910390fd5b61100984848484611c97565b50505050565b606061101a82611424565b611059576040517f08c379a000000000000000000000000000000000000000000000000000000000815260040161105090613482565b60405180910390fd5b6000611063611cf3565b9050600081511161108357604051806020016040528060008152506110ae565b8061108d84611d85565b60405160200161109e9291906134de565b6040516020818303038152906040525b915050919050565b6110e07f9f2df0fed2c77648de5860a4cc508cd0818c85b8b8a1ab4ceeef8d981c8956a682611107565b50565b7f9f2df0fed2c77648de5860a4cc508cd0818c85b8b8a1ab4ceeef8d981c8956a681565b61111082610a36565b6111218161111c61137f565b611387565b61112b8383611964565b505050565b600a5481565b6000600560008473ffffffffffffffffffffffffffffffffffffffff1673ffffffffffffffffffffffffffffffffffffffff16815260200190815260200160002060008373ffffffffffffffffffffffffffffffffffffffff1673ffffffffffffffffffffffffffffffffffffffff16815260200190815260200160002060009054906101000a900460ff16905092915050565b6111d261137f565b73ffffffffffffffffffffffffffffffffffffffff166111f0610e69565b73ffffffffffffffffffffffffffffffffffffffff1614611246576040517f08c379a000000000000000000000000000000000000000000000000000000000815260040161123d906133f0565b60405180910390fd5b600073ffffffffffffffffffffffffffffffffffffffff168173ffffffffffffffffffffffffffffffffffffffff1614156112b6576040517f08c379a00000000000000000000000000000000000000000000000000000000081526004016112ad90613574565b60405180910390fd5b6112bf81611a64565b50565b6000801b6112d7816112d261137f565b611387565b6113017f9f2df0fed2c77648de5860a4cc508cd0818c85b8b8a1ab4ceeef8d981c8956a683610a56565b5050565b60007f7965db0b000000000000000000000000000000000000000000000000000000007bffffffffffffffffffffffffffffffffffffffffffffffffffffffff1916827bffffffffffffffffffffffffffffffffffffffffffffffffffffffff19161480611378575061137782611ee6565b5b9050919050565b600033905090565b6113918282610e93565b611420576113b68173ffffffffffffffffffffffffffffffffffffffff166014611fc8565b6113c48360001c6020611fc8565b6040516020016113d592919061362c565b6040516020818303038152906040526040517f08c379a000000000000000000000000000000000000000000000000000000000815260040161141791906129c0565b60405180910390fd5b5050565b60008073ffffffffffffffffffffffffffffffffffffffff166002600084815260200190815260200160002060009054906101000a900473ffffffffffffffffffffffffffffffffffffffff1673ffffffffffffffffffffffffffffffffffffffff1614159050919050565b816004600083815260200190815260200160002060006101000a81548173ffffffffffffffffffffffffffffffffffffffff021916908373ffffffffffffffffffffffffffffffffffffffff160217905550808273ffffffffffffffffffffffffffffffffffffffff1661150383610bc9565b73ffffffffffffffffffffffffffffffffffffffff167f8c5be1e5ebec7d5bd14f71427d1e84f3dd0314c0f7b2291e5b200ac8c7c3b92560405160405180910390a45050565b600061155482611424565b611593576040517f08c379a000000000000000000000000000000000000000000000000000000000815260040161158a906136d8565b60405180910390fd5b600061159e83610bc9565b90508073ffffffffffffffffffffffffffffffffffffffff168473ffffffffffffffffffffffffffffffffffffffff16148061160d57508373ffffffffffffffffffffffffffffffffffffffff166115f584610839565b73ffffffffffffffffffffffffffffffffffffffff16145b8061161e575061161d8185611136565b5b91505092915050565b8273ffffffffffffffffffffffffffffffffffffffff1661164782610bc9565b73ffffffffffffffffffffffffffffffffffffffff161461169d576040517f08c379a00000000000000000000000000000000000000000000000000000000081526004016116949061376a565b60405180910390fd5b600073ffffffffffffffffffffffffffffffffffffffff168273ffffffffffffffffffffffffffffffffffffffff16141561170d576040517f08c379a0000000000000000000000000000000000000000000000000000000008152600401611704906137fc565b60405180910390fd5b611718838383612204565b611723600082611490565b6001600360008573ffffffffffffffffffffffffffffffffffffffff1673ffffffffffffffffffffffffffffffffffffffff1681526020019081526020016000206000828254611773919061381c565b925050819055506001600360008473ffffffffffffffffffffffffffffffffffffffff1673ffffffffffffffffffffffffffffffffffffffff16815260200190815260200160002060008282546117ca919061322a565b92505081905550816002600083815260200190815260200160002060006101000a81548173ffffffffffffffffffffffffffffffffffffffff021916908373ffffffffffffffffffffffffffffffffffffffff160217905550808273ffffffffffffffffffffffffffffffffffffffff168473ffffffffffffffffffffffffffffffffffffffff167fddf252ad1be2c89b69c2b068fc378daa952ba7f163c4a11628f55a4df523b3ef60405160405180910390a4505050565b61188d8282610e93565b6119605760016006600084815260200190815260200160002060000160008373ffffffffffffffffffffffffffffffffffffffff1673ffffffffffffffffffffffffffffffffffffffff16815260200190815260200160002060006101000a81548160ff02191690831515021790555061190561137f565b73ffffffffffffffffffffffffffffffffffffffff168173ffffffffffffffffffffffffffffffffffffffff16837f2f8788117e7eff1d82e926ec794901d17c78024a50270940304540a733656f0d60405160405180910390a45b5050565b61196e8282610e93565b15611a425760006006600084815260200190815260200160002060000160008373ffffffffffffffffffffffffffffffffffffffff1673ffffffffffffffffffffffffffffffffffffffff16815260200190815260200160002060006101000a81548160ff0219169083151502179055506119e761137f565b73ffffffffffffffffffffffffffffffffffffffff168173ffffffffffffffffffffffffffffffffffffffff16837ff6391f5c32d9c69d2a47ea670b442974b53935d1edc7fd64eb21e047a839171b60405160405180910390a45b5050565b611a60828260405180602001604052806000815250612209565b5050565b6000600760009054906101000a900473ffffffffffffffffffffffffffffffffffffffff16905081600760006101000a81548173ffffffffffffffffffffffffffffffffffffffff021916908373ffffffffffffffffffffffffffffffffffffffff1602179055508173ffffffffffffffffffffffffffffffffffffffff168173ffffffffffffffffffffffffffffffffffffffff167f8be0079c531659141344cd1fd0a4f28419497f9722a3daafe3b4186f6b6457e060405160405180910390a35050565b8173ffffffffffffffffffffffffffffffffffffffff168373ffffffffffffffffffffffffffffffffffffffff161415611b99576040517f08c379a0000000000000000000000000000000000000000000000000000000008152600401611b909061389c565b60405180910390fd5b80600560008573ffffffffffffffffffffffffffffffffffffffff1673ffffffffffffffffffffffffffffffffffffffff16815260200190815260200160002060008473ffffffffffffffffffffffffffffffffffffffff1673ffffffffffffffffffffffffffffffffffffffff16815260200190815260200160002060006101000a81548160ff0219169083151502179055508173ffffffffffffffffffffffffffffffffffffffff168373ffffffffffffffffffffffffffffffffffffffff167f17307eab39ab6107e8899845ad3d59bd9653f200f220920489ca2b5937696c3183604051611c8a919061278e565b60405180910390a3505050565b611ca2848484611627565b611cae84848484612264565b611ced576040517f08c379a0000000000000000000000000000000000000000000000000000000008152600401611ce49061392e565b60405180910390fd5b50505050565b606060088054611d0290612e83565b80601f0160208091040260200160405190810160405280929190818152602001828054611d2e90612e83565b8015611d7b5780601f10611d5057610100808354040283529160200191611d7b565b820191906000526020600020905b815481529060010190602001808311611d5e57829003601f168201915b5050505050905090565b60606000821415611dcd576040518060400160405280600181526020017f30000000000000000000000000000000000000000000000000000000000000008152509050611ee1565b600082905060005b60008214611dff578080611de89061394e565b915050600a82611df891906139c6565b9150611dd5565b60008167ffffffffffffffff811115611e1b57611e1a6127c4565b5b6040519080825280601f01601f191660200182016040528015611e4d5781602001600182028036833780820191505090505b5090505b60008514611eda57600182611e66919061381c565b9150600a85611e7591906139f7565b6030611e81919061322a565b60f81b818381518110611e9757611e96613a28565b5b60200101907effffffffffffffffffffffffffffffffffffffffffffffffffffffffffffff1916908160001a905350600a85611ed391906139c6565b9450611e51565b8093505050505b919050565b60007f80ac58cd000000000000000000000000000000000000000000000000000000007bffffffffffffffffffffffffffffffffffffffffffffffffffffffff1916827bffffffffffffffffffffffffffffffffffffffffffffffffffffffff19161480611fb157507f5b5e139f000000000000000000000000000000000000000000000000000000007bffffffffffffffffffffffffffffffffffffffffffffffffffffffff1916827bffffffffffffffffffffffffffffffffffffffffffffffffffffffff1916145b80611fc15750611fc0826123ec565b5b9050919050565b606060006002836002611fdb9190613a57565b611fe5919061322a565b67ffffffffffffffff811115611ffe57611ffd6127c4565b5b6040519080825280601f01601f1916602001820160405280156120305781602001600182028036833780820191505090505b5090507f30000000000000000000000000000000000000000000000000000000000000008160008151811061206857612067613a28565b5b60200101907effffffffffffffffffffffffffffffffffffffffffffffffffffffffffffff1916908160001a9053507f7800000000000000000000000000000000000000000000000000000000000000816001815181106120cc576120cb613a28565b5b60200101907effffffffffffffffffffffffffffffffffffffffffffffffffffffffffffff1916908160001a9053506000600184600261210c9190613a57565b612116919061322a565b90505b60018111156121b6577f3031323334353637383961626364656600000000000000000000000000000000600f86166010811061215857612157613a28565b5b1a60f81b82828151811061216f5761216e613a28565b5b60200101907effffffffffffffffffffffffffffffffffffffffffffffffffffffffffffff1916908160001a905350600485901c9450806121af90613ab1565b9050612119565b50600084146121fa576040517f08c379a00000000000000000000000000000000000000000000000000000000081526004016121f190613b27565b60405180910390fd5b8091505092915050565b505050565b6122138383612456565b6122206000848484612264565b61225f576040517f08c379a00000000000000000000000000000000000000000000000000000000081526004016122569061392e565b60405180910390fd5b505050565b60006122858473ffffffffffffffffffffffffffffffffffffffff16612624565b156123df578373ffffffffffffffffffffffffffffffffffffffff1663150b7a026122ae61137f565b8786866040518563ffffffff1660e01b81526004016122d09493929190613b9c565b6020604051808303816000875af192505050801561230c57506040513d601f19601f820116820180604052508101906123099190613bfd565b60015b61238f573d806000811461233c576040519150601f19603f3d011682016040523d82523d6000602084013e612341565b606091505b50600081511415612387576040517f08c379a000000000000000000000000000000000000000000000000000000000815260040161237e9061392e565b60405180910390fd5b805181602001fd5b63150b7a0260e01b7bffffffffffffffffffffffffffffffffffffffffffffffffffffffff1916817bffffffffffffffffffffffffffffffffffffffffffffffffffffffff1916149150506123e4565b600190505b949350505050565b60007f01ffc9a7000000000000000000000000000000000000000000000000000000007bffffffffffffffffffffffffffffffffffffffffffffffffffffffff1916827bffffffffffffffffffffffffffffffffffffffffffffffffffffffff1916149050919050565b600073ffffffffffffffffffffffffffffffffffffffff168273ffffffffffffffffffffffffffffffffffffffff1614156124c6576040517f08c379a00000000000000000000000000000000000000000000000000000000081526004016124bd90613c76565b60405180910390fd5b6124cf81611424565b1561250f576040517f08c379a000000000000000000000000000000000000000000000000000000000815260040161250690613ce2565b60405180910390fd5b61251b60008383612204565b6001600360008473ffffffffffffffffffffffffffffffffffffffff1673ffffffffffffffffffffffffffffffffffffffff168152602001908152602001600020600082825461256b919061322a565b92505081905550816002600083815260200190815260200160002060006101000a81548173ffffffffffffffffffffffffffffffffffffffff021916908373ffffffffffffffffffffffffffffffffffffffff160217905550808273ffffffffffffffffffffffffffffffffffffffff16600073ffffffffffffffffffffffffffffffffffffffff167fddf252ad1be2c89b69c2b068fc378daa952ba7f163c4a11628f55a4df523b3ef60405160405180910390a45050565b600080823b905060008111915050919050565b82805461264390612e83565b90600052602060002090601f01602090048101928261266557600085556126ac565b82601f1061267e57805160ff19168380011785556126ac565b828001600101855582156126ac579182015b828111156126ab578251825591602001919060010190612690565b5b5090506126b991906126bd565b5090565b5b808211156126d65760008160009055506001016126be565b5090565b6000604051905090565b600080fd5b600080fd5b60007fffffffff0000000000000000000000000000000000000000000000000000000082169050919050565b612723816126ee565b811461272e57600080fd5b50565b6000813590506127408161271a565b92915050565b60006020828403121561275c5761275b6126e4565b5b600061276a84828501612731565b91505092915050565b60008115159050919050565b61278881612773565b82525050565b60006020820190506127a3600083018461277f565b92915050565b600080fd5b600080fd5b6000601f19601f8301169050919050565b7f4e487b7100000000000000000000000000000000000000000000000000000000600052604160045260246000fd5b6127fc826127b3565b810181811067ffffffffffffffff8211171561281b5761281a6127c4565b5b80604052505050565b600061282e6126da565b905061283a82826127f3565b919050565b600067ffffffffffffffff82111561285a576128596127c4565b5b612863826127b3565b9050602081019050919050565b82818337600083830152505050565b600061289261288d8461283f565b612824565b9050828152602081018484840111156128ae576128ad6127ae565b5b6128b9848285612870565b509392505050565b600082601f8301126128d6576128d56127a9565b5b81356128e684826020860161287f565b91505092915050565b600060208284031215612905576129046126e4565b5b600082013567ffffffffffffffff811115612923576129226126e9565b5b61292f848285016128c1565b91505092915050565b600081519050919050565b600082825260208201905092915050565b60005b83811015612972578082015181840152602081019050612957565b83811115612981576000848401525b50505050565b600061299282612938565b61299c8185612943565b93506129ac818560208601612954565b6129b5816127b3565b840191505092915050565b600060208201905081810360008301526129da8184612987565b905092915050565b6000819050919050565b6129f5816129e2565b8114612a0057600080fd5b50565b600081359050612a12816129ec565b92915050565b600060208284031215612a2e57612a2d6126e4565b5b6000612a3c84828501612a03565b91505092915050565b600073ffffffffffffffffffffffffffffffffffffffff82169050919050565b6000612a7082612a45565b9050919050565b612a8081612a65565b82525050565b6000602082019050612a9b6000830184612a77565b92915050565b612aaa81612a65565b8114612ab557600080fd5b50565b600081359050612ac781612aa1565b92915050565b60008060408385031215612ae457612ae36126e4565b5b6000612af285828601612ab8565b9250506020612b0385828601612a03565b9150509250929050565b600080600060608486031215612b2657612b256126e4565b5b6000612b3486828701612ab8565b9350506020612b4586828701612ab8565b9250506040612b5686828701612a03565b9150509250925092565b6000819050919050565b612b7381612b60565b8114612b7e57600080fd5b50565b600081359050612b9081612b6a565b92915050565b600060208284031215612bac57612bab6126e4565b5b6000612bba84828501612b81565b91505092915050565b612bcc81612b60565b82525050565b6000602082019050612be76000830184612bc3565b92915050565b60008060408385031215612c0457612c036126e4565b5b6000612c1285828601612b81565b9250506020612c2385828601612ab8565b9150509250929050565b612c36816129e2565b82525050565b6000602082019050612c516000830184612c2d565b92915050565b600060208284031215612c6d57612c6c6126e4565b5b6000612c7b84828501612ab8565b91505092915050565b612c8d81612773565b8114612c9857600080fd5b50565b600081359050612caa81612c84565b92915050565b60008060408385031215612cc757612cc66126e4565b5b6000612cd585828601612ab8565b9250506020612ce685828601612c9b565b9150509250929050565b600067ffffffffffffffff821115612d0b57612d0a6127c4565b5b612d14826127b3565b9050602081019050919050565b6000612d34612d2f84612cf0565b612824565b905082815260208101848484011115612d5057612d4f6127ae565b5b612d5b848285612870565b509392505050565b600082601f830112612d7857612d776127a9565b5b8135612d88848260208601612d21565b91505092915050565b60008060008060808587031215612dab57612daa6126e4565b5b6000612db987828801612ab8565b9450506020612dca87828801612ab8565b9350506040612ddb87828801612a03565b925050606085013567ffffffffffffffff811115612dfc57612dfb6126e9565b5b612e0887828801612d63565b91505092959194509250565b60008060408385031215612e2b57612e2a6126e4565b5b6000612e3985828601612ab8565b9250506020612e4a85828601612ab8565b9150509250929050565b7f4e487b7100000000000000000000000000000000000000000000000000000000600052602260045260246000fd5b60006002820490506001821680612e9b57607f821691505b60208210811415612eaf57612eae612e54565b5b50919050565b7f4552433732313a20617070726f76656420717565727920666f72206e6f6e657860008201527f697374656e7420746f6b656e0000000000000000000000000000000000000000602082015250565b6000612f11602c83612943565b9150612f1c82612eb5565b604082019050919050565b60006020820190508181036000830152612f4081612f04565b9050919050565b7f4552433732313a20617070726f76616c20746f2063757272656e74206f776e6560008201527f7200000000000000000000000000000000000000000000000000000000000000602082015250565b6000612fa3602183612943565b9150612fae82612f47565b604082019050919050565b60006020820190508181036000830152612fd281612f96565b9050919050565b7f4552433732313a20617070726f76652063616c6c6572206973206e6f74206f7760008201527f6e6572206e6f7220617070726f76656420666f7220616c6c0000000000000000602082015250565b6000613035603883612943565b915061304082612fd9565b604082019050919050565b6000602082019050818103600083015261306481613028565b9050919050565b7f4552433732313a207472616e736665722063616c6c6572206973206e6f74206f60008201527f776e6572206e6f7220617070726f766564000000000000000000000000000000602082015250565b60006130c7603183612943565b91506130d28261306b565b604082019050919050565b600060208201905081810360008301526130f6816130ba565b9050919050565b7f416363657373436f6e74726f6c3a2063616e206f6e6c792072656e6f756e636560008201527f20726f6c657320666f722073656c660000000000000000000000000000000000602082015250565b6000613159602f83612943565b9150613164826130fd565b604082019050919050565b600060208201905081810360008301526131888161314c565b9050919050565b7f4d6178206f757400000000000000000000000000000000000000000000000000600082015250565b60006131c5600783612943565b91506131d08261318f565b602082019050919050565b600060208201905081810360008301526131f4816131b8565b9050919050565b7f4e487b7100000000000000000000000000000000000000000000000000000000600052601160045260246000fd5b6000613235826129e2565b9150613240836129e2565b9250827fffffffffffffffffffffffffffffffffffffffffffffffffffffffffffffffff03821115613275576132746131fb565b5b828201905092915050565b7f4552433732313a206f776e657220717565727920666f72206e6f6e657869737460008201527f656e7420746f6b656e0000000000000000000000000000000000000000000000602082015250565b60006132dc602983612943565b91506132e782613280565b604082019050919050565b6000602082019050818103600083015261330b816132cf565b9050919050565b7f4552433732313a2062616c616e636520717565727920666f7220746865207a6560008201527f726f206164647265737300000000000000000000000000000000000000000000602082015250565b600061336e602a83612943565b915061337982613312565b604082019050919050565b6000602082019050818103600083015261339d81613361565b9050919050565b7f4f776e61626c653a2063616c6c6572206973206e6f7420746865206f776e6572600082015250565b60006133da602083612943565b91506133e5826133a4565b602082019050919050565b60006020820190508181036000830152613409816133cd565b9050919050565b7f4552433732314d657461646174613a2055524920717565727920666f72206e6f60008201527f6e6578697374656e7420746f6b656e0000000000000000000000000000000000602082015250565b600061346c602f83612943565b915061347782613410565b604082019050919050565b6000602082019050818103600083015261349b8161345f565b9050919050565b600081905092915050565b60006134b882612938565b6134c281856134a2565b93506134d2818560208601612954565b80840191505092915050565b60006134ea82856134ad565b91506134f682846134ad565b91508190509392505050565b7f4f776e61626c653a206e6577206f776e657220697320746865207a65726f206160008201527f6464726573730000000000000000000000000000000000000000000000000000602082015250565b600061355e602683612943565b915061356982613502565b604082019050919050565b6000602082019050818103600083015261358d81613551565b9050919050565b7f416363657373436f6e74726f6c3a206163636f756e7420000000000000000000600082015250565b60006135ca6017836134a2565b91506135d582613594565b601782019050919050565b7f206973206d697373696e6720726f6c6520000000000000000000000000000000600082015250565b60006136166011836134a2565b9150613621826135e0565b601182019050919050565b6000613637826135bd565b915061364382856134ad565b915061364e82613609565b915061365a82846134ad565b91508190509392505050565b7f4552433732313a206f70657261746f7220717565727920666f72206e6f6e657860008201527f697374656e7420746f6b656e0000000000000000000000000000000000000000602082015250565b60006136c2602c83612943565b91506136cd82613666565b604082019050919050565b600060208201905081810360008301526136f1816136b5565b9050919050565b7f4552433732313a207472616e73666572206f6620746f6b656e2074686174206960008201527f73206e6f74206f776e0000000000000000000000000000000000000000000000602082015250565b6000613754602983612943565b915061375f826136f8565b604082019050919050565b6000602082019050818103600083015261378381613747565b9050919050565b7f4552433732313a207472616e7366657220746f20746865207a65726f2061646460008201527f7265737300000000000000000000000000000000000000000000000000000000602082015250565b60006137e6602483612943565b91506137f18261378a565b604082019050919050565b60006020820190508181036000830152613815816137d9565b9050919050565b6000613827826129e2565b9150613832836129e2565b925082821015613845576138446131fb565b5b828203905092915050565b7f4552433732313a20617070726f766520746f2063616c6c657200000000000000600082015250565b6000613886601983612943565b915061389182613850565b602082019050919050565b600060208201905081810360008301526138b581613879565b9050919050565b7f4552433732313a207472616e7366657220746f206e6f6e20455243373231526560008201527f63656976657220696d706c656d656e7465720000000000000000000000000000602082015250565b6000613918603283612943565b9150613923826138bc565b604082019050919050565b600060208201905081810360008301526139478161390b565b9050919050565b6000613959826129e2565b91507fffffffffffffffffffffffffffffffffffffffffffffffffffffffffffffffff82141561398c5761398b6131fb565b5b600182019050919050565b7f4e487b7100000000000000000000000000000000000000000000000000000000600052601260045260246000fd5b60006139d1826129e2565b91506139dc836129e2565b9250826139ec576139eb613997565b5b828204905092915050565b6000613a02826129e2565b9150613a0d836129e2565b925082613a1d57613a1c613997565b5b828206905092915050565b7f4e487b7100000000000000000000000000000000000000000000000000000000600052603260045260246000fd5b6000613a62826129e2565b9150613a6d836129e2565b9250817fffffffffffffffffffffffffffffffffffffffffffffffffffffffffffffffff0483118215151615613aa657613aa56131fb565b5b828202905092915050565b6000613abc826129e2565b91506000821415613ad057613acf6131fb565b5b600182039050919050565b7f537472696e67733a20686578206c656e67746820696e73756666696369656e74600082015250565b6000613b11602083612943565b9150613b1c82613adb565b602082019050919050565b60006020820190508181036000830152613b4081613b04565b9050919050565b600081519050919050565b600082825260208201905092915050565b6000613b6e82613b47565b613b788185613b52565b9350613b88818560208601612954565b613b91816127b3565b840191505092915050565b6000608082019050613bb16000830187612a77565b613bbe6020830186612a77565b613bcb6040830185612c2d565b8181036060830152613bdd8184613b63565b905095945050505050565b600081519050613bf78161271a565b92915050565b600060208284031215613c1357613c126126e4565b5b6000613c2184828501613be8565b91505092915050565b7f4552433732313a206d696e7420746f20746865207a65726f2061646472657373600082015250565b6000613c60602083612943565b9150613c6b82613c2a565b602082019050919050565b60006020820190508181036000830152613c8f81613c53565b9050919050565b7f4552433732313a20746f6b656e20616c7265616479206d696e74656400000000600082015250565b6000613ccc601c83612943565b9150613cd782613c96565b602082019050919050565b60006020820190508181036000830152613cfb81613cbf565b905091905056fea2646970667358221220f4e21704eaa62e734a5893648f01ba1ee60836c73675ce94986a5d3bbdf1493b64736f6c634300080b0033",
  "devdoc": {
    "kind": "dev",
    "methods": {
      "approve(address,uint256)": {
        "details": "See {IERC721-approve}."
      },
      "balanceOf(address)": {
        "details": "See {IERC721-balanceOf}."
      },
      "getApproved(uint256)": {
        "details": "See {IERC721-getApproved}."
      },
      "getRoleAdmin(bytes32)": {
        "details": "Returns the admin role that controls `role`. See {grantRole} and {revokeRole}. To change a role's admin, use {_setRoleAdmin}."
      },
      "grantRole(bytes32,address)": {
        "details": "Grants `role` to `account`. If `account` had not been already granted `role`, emits a {RoleGranted} event. Requirements: - the caller must have ``role``'s admin role."
      },
      "hasRole(bytes32,address)": {
        "details": "Returns `true` if `account` has been granted `role`."
      },
      "isApprovedForAll(address,address)": {
        "details": "See {IERC721-isApprovedForAll}."
      },
      "mint(address,uint256)": {
        "details": "mints nft with tokenId to user",
        "params": {
          "id": "token id to mint",
          "user": "address of user"
        }
      },
      "name()": {
        "details": "See {IERC721Metadata-name}."
      },
      "owner()": {
        "details": "Returns the address of the current owner."
      },
      "ownerOf(uint256)": {
        "details": "See {IERC721-ownerOf}."
      },
      "renounceOwnership()": {
        "details": "Leaves the contract without owner. It will not be possible to call `onlyOwner` functions anymore. Can only be called by the current owner. NOTE: Renouncing ownership will leave the contract without an owner, thereby removing any functionality that is only available to the owner."
      },
      "renounceRole(bytes32,address)": {
        "details": "Revokes `role` from the calling account. Roles are often managed via {grantRole} and {revokeRole}: this function's purpose is to provide a mechanism for accounts to lose their privileges if they are compromised (such as when a trusted device is misplaced). If the calling account had been revoked `role`, emits a {RoleRevoked} event. Requirements: - the caller must be `account`."
      },
      "revokeMinter(address)": {
        "details": "revokes minter",
        "params": {
          "_minter": "minter address"
        }
      },
      "revokeRole(bytes32,address)": {
        "details": "Revokes `role` from `account`. If `account` had been granted `role`, emits a {RoleRevoked} event. Requirements: - the caller must have ``role``'s admin role."
      },
      "safeTransferFrom(address,address,uint256)": {
        "details": "See {IERC721-safeTransferFrom}."
      },
      "safeTransferFrom(address,address,uint256,bytes)": {
        "details": "See {IERC721-safeTransferFrom}."
      },
      "setApprovalForAll(address,bool)": {
        "details": "See {IERC721-setApprovalForAll}."
      },
      "setMinter(address)": {
        "details": "set minter address",
        "params": {
          "_minter": "minter address"
        }
      },
      "symbol()": {
        "details": "See {IERC721Metadata-symbol}."
      },
      "tokenURI(uint256)": {
        "details": "See {IERC721Metadata-tokenURI}."
      },
      "transferFrom(address,address,uint256)": {
        "details": "See {IERC721-transferFrom}."
      },
      "transferOwnership(address)": {
        "details": "Transfers ownership of the contract to a new account (`newOwner`). Can only be called by the current owner."
      }
    },
    "version": 1
  },
  "userdoc": {
    "kind": "user",
    "methods": {},
    "version": 1
  },
  "storageLayout": {
    "storage": [
      {
        "astId": 778,
        "contract": "contracts/PenguinNFT.sol:PenguinNFT",
        "label": "_name",
        "offset": 0,
        "slot": "0",
        "type": "t_string_storage"
      },
      {
        "astId": 780,
        "contract": "contracts/PenguinNFT.sol:PenguinNFT",
        "label": "_symbol",
        "offset": 0,
        "slot": "1",
        "type": "t_string_storage"
      },
      {
        "astId": 784,
        "contract": "contracts/PenguinNFT.sol:PenguinNFT",
        "label": "_owners",
        "offset": 0,
        "slot": "2",
        "type": "t_mapping(t_uint256,t_address)"
      },
      {
        "astId": 788,
        "contract": "contracts/PenguinNFT.sol:PenguinNFT",
        "label": "_balances",
        "offset": 0,
        "slot": "3",
        "type": "t_mapping(t_address,t_uint256)"
      },
      {
        "astId": 792,
        "contract": "contracts/PenguinNFT.sol:PenguinNFT",
        "label": "_tokenApprovals",
        "offset": 0,
        "slot": "4",
        "type": "t_mapping(t_uint256,t_address)"
      },
      {
        "astId": 798,
        "contract": "contracts/PenguinNFT.sol:PenguinNFT",
        "label": "_operatorApprovals",
        "offset": 0,
        "slot": "5",
        "type": "t_mapping(t_address,t_mapping(t_address,t_bool))"
      },
      {
        "astId": 290,
        "contract": "contracts/PenguinNFT.sol:PenguinNFT",
        "label": "_roles",
        "offset": 0,
        "slot": "6",
        "type": "t_mapping(t_bytes32,t_struct(RoleData)285_storage)"
      },
      {
        "astId": 655,
        "contract": "contracts/PenguinNFT.sol:PenguinNFT",
        "label": "_owner",
        "offset": 0,
        "slot": "7",
        "type": "t_address"
      },
      {
        "astId": 3101,
        "contract": "contracts/PenguinNFT.sol:PenguinNFT",
        "label": "baseURI",
        "offset": 0,
        "slot": "8",
        "type": "t_string_storage"
      },
      {
        "astId": 3103,
        "contract": "contracts/PenguinNFT.sol:PenguinNFT",
        "label": "minted",
        "offset": 0,
        "slot": "9",
        "type": "t_uint256"
      },
      {
        "astId": 3105,
        "contract": "contracts/PenguinNFT.sol:PenguinNFT",
        "label": "maxSupply",
        "offset": 0,
        "slot": "10",
        "type": "t_uint256"
      }
    ],
    "types": {
      "t_address": {
        "encoding": "inplace",
        "label": "address",
        "numberOfBytes": "20"
      },
      "t_bool": {
        "encoding": "inplace",
        "label": "bool",
        "numberOfBytes": "1"
      },
      "t_bytes32": {
        "encoding": "inplace",
        "label": "bytes32",
        "numberOfBytes": "32"
      },
      "t_mapping(t_address,t_bool)": {
        "encoding": "mapping",
        "key": "t_address",
        "label": "mapping(address => bool)",
        "numberOfBytes": "32",
        "value": "t_bool"
      },
      "t_mapping(t_address,t_mapping(t_address,t_bool))": {
        "encoding": "mapping",
        "key": "t_address",
        "label": "mapping(address => mapping(address => bool))",
        "numberOfBytes": "32",
        "value": "t_mapping(t_address,t_bool)"
      },
      "t_mapping(t_address,t_uint256)": {
        "encoding": "mapping",
        "key": "t_address",
        "label": "mapping(address => uint256)",
        "numberOfBytes": "32",
        "value": "t_uint256"
      },
      "t_mapping(t_bytes32,t_struct(RoleData)285_storage)": {
        "encoding": "mapping",
        "key": "t_bytes32",
        "label": "mapping(bytes32 => struct AccessControl.RoleData)",
        "numberOfBytes": "32",
        "value": "t_struct(RoleData)285_storage"
      },
      "t_mapping(t_uint256,t_address)": {
        "encoding": "mapping",
        "key": "t_uint256",
        "label": "mapping(uint256 => address)",
        "numberOfBytes": "32",
        "value": "t_address"
      },
      "t_string_storage": {
        "encoding": "bytes",
        "label": "string",
        "numberOfBytes": "32"
      },
      "t_struct(RoleData)285_storage": {
        "encoding": "inplace",
        "label": "struct AccessControl.RoleData",
        "members": [
          {
            "astId": 282,
            "contract": "contracts/PenguinNFT.sol:PenguinNFT",
            "label": "members",
            "offset": 0,
            "slot": "0",
            "type": "t_mapping(t_address,t_bool)"
          },
          {
            "astId": 284,
            "contract": "contracts/PenguinNFT.sol:PenguinNFT",
            "label": "adminRole",
            "offset": 0,
            "slot": "1",
            "type": "t_bytes32"
          }
        ],
        "numberOfBytes": "64"
      },
      "t_uint256": {
        "encoding": "inplace",
        "label": "uint256",
        "numberOfBytes": "32"
      }
    }
  }
}