{
  "address": "0xd6Edaf2765DBbb8753a6450d4cE73df740e05F89",
  "abi": [
    {
      "inputs": [
        {
          "internalType": "address",
          "name": "nft_",
          "type": "address"
        },
        {
          "internalType": "address",
          "name": "minting_",
          "type": "address"
        }
      ],
      "stateMutability": "nonpayable",
      "type": "constructor"
    },
    {
      "anonymous": false,
      "inputs": [
        {
          "indexed": true,
          "internalType": "uint256",
          "name": "timestamp",
          "type": "uint256"
        },
        {
          "indexed": true,
          "internalType": "address",
          "name": "user",
          "type": "address"
        },
        {
          "indexed": false,
          "internalType": "uint256",
          "name": "tokenId",
          "type": "uint256"
        }
      ],
      "name": "Mint",
      "type": "event"
    },
    {
      "anonymous": false,
      "inputs": [
        {
          "indexed": true,
          "internalType": "address",
          "name": "previousOwner",
          "type": "address"
        },
        {
          "indexed": true,
          "internalType": "address",
          "name": "newOwner",
          "type": "address"
        }
      ],
      "name": "OwnershipTransferred",
      "type": "event"
    },
    {
      "anonymous": false,
      "inputs": [
        {
          "indexed": true,
          "internalType": "uint256",
          "name": "timestamp",
          "type": "uint256"
        },
        {
          "indexed": true,
          "internalType": "address",
          "name": "user",
          "type": "address"
        },
        {
          "indexed": false,
          "internalType": "uint256",
          "name": "duration",
          "type": "uint256"
        }
      ],
      "name": "SetDuration",
      "type": "event"
    },
    {
      "anonymous": false,
      "inputs": [
        {
          "indexed": true,
          "internalType": "uint256",
          "name": "timestamp",
          "type": "uint256"
        },
        {
          "indexed": true,
          "internalType": "address",
          "name": "user",
          "type": "address"
        },
        {
          "indexed": false,
          "internalType": "uint256",
          "name": "maxQuantity",
          "type": "uint256"
        }
      ],
      "name": "SetMaxQuantity",
      "type": "event"
    },
    {
      "anonymous": false,
      "inputs": [
        {
          "indexed": true,
          "internalType": "uint256",
          "name": "timestamp",
          "type": "uint256"
        },
        {
          "indexed": true,
          "internalType": "address",
          "name": "user",
          "type": "address"
        }
      ],
      "name": "Start",
      "type": "event"
    },
    {
      "anonymous": false,
      "inputs": [
        {
          "indexed": true,
          "internalType": "uint256",
          "name": "timestamp",
          "type": "uint256"
        },
        {
          "indexed": true,
          "internalType": "address",
          "name": "user",
          "type": "address"
        }
      ],
      "name": "Stop",
      "type": "event"
    },
    {
      "anonymous": false,
      "inputs": [
        {
          "indexed": true,
          "internalType": "uint256",
          "name": "timestamp",
          "type": "uint256"
        },
        {
          "indexed": true,
          "internalType": "address",
          "name": "user",
          "type": "address"
        },
        {
          "indexed": false,
          "internalType": "uint256",
          "name": "amount",
          "type": "uint256"
        }
      ],
      "name": "SyncAmount",
      "type": "event"
    },
    {
      "inputs": [
        {
          "internalType": "uint256",
          "name": "value",
          "type": "uint256"
        },
        {
          "internalType": "uint256",
          "name": "salt",
          "type": "uint256"
        }
      ],
      "name": "addSalt",
      "outputs": [
        {
          "internalType": "uint256",
          "name": "",
          "type": "uint256"
        }
      ],
      "stateMutability": "pure",
      "type": "function"
    },
    {
      "inputs": [],
      "name": "amount",
      "outputs": [
        {
          "internalType": "uint256",
          "name": "",
          "type": "uint256"
        }
      ],
      "stateMutability": "view",
      "type": "function"
    },
    {
      "inputs": [],
      "name": "duration",
      "outputs": [
        {
          "internalType": "uint256",
          "name": "",
          "type": "uint256"
        }
      ],
      "stateMutability": "view",
      "type": "function"
    },
    {
      "inputs": [],
      "name": "getRandomNumber",
      "outputs": [
        {
          "internalType": "uint256",
          "name": "",
          "type": "uint256"
        }
      ],
      "stateMutability": "view",
      "type": "function"
    },
    {
      "inputs": [
        {
          "internalType": "uint256",
          "name": "",
          "type": "uint256"
        }
      ],
      "name": "indexes",
      "outputs": [
        {
          "internalType": "uint256",
          "name": "",
          "type": "uint256"
        }
      ],
      "stateMutability": "view",
      "type": "function"
    },
    {
      "inputs": [],
      "name": "maxQuantity",
      "outputs": [
        {
          "internalType": "uint256",
          "name": "",
          "type": "uint256"
        }
      ],
      "stateMutability": "view",
      "type": "function"
    },
    {
      "inputs": [
        {
          "internalType": "uint256",
          "name": "quantity",
          "type": "uint256"
        }
      ],
      "name": "mint",
      "outputs": [],
      "stateMutability": "nonpayable",
      "type": "function"
    },
    {
      "inputs": [
        {
          "internalType": "uint256[]",
          "name": "quantities",
          "type": "uint256[]"
        },
        {
          "internalType": "address[]",
          "name": "users",
          "type": "address[]"
        }
      ],
      "name": "mintMass",
      "outputs": [],
      "stateMutability": "nonpayable",
      "type": "function"
    },
    {
      "inputs": [],
      "name": "minting",
      "outputs": [
        {
          "internalType": "contract OldMinting",
          "name": "",
          "type": "address"
        }
      ],
      "stateMutability": "view",
      "type": "function"
    },
    {
      "inputs": [],
      "name": "nft",
      "outputs": [
        {
          "internalType": "contract IERC721Custom",
          "name": "",
          "type": "address"
        }
      ],
      "stateMutability": "view",
      "type": "function"
    },
    {
      "inputs": [],
      "name": "owner",
      "outputs": [
        {
          "internalType": "address",
          "name": "",
          "type": "address"
        }
      ],
      "stateMutability": "view",
      "type": "function"
    },
    {
      "inputs": [
        {
          "internalType": "uint256",
          "name": "number",
          "type": "uint256"
        },
        {
          "internalType": "uint256",
          "name": "from",
          "type": "uint256"
        },
        {
          "internalType": "uint256",
          "name": "to",
          "type": "uint256"
        }
      ],
      "name": "range",
      "outputs": [
        {
          "internalType": "uint256",
          "name": "",
          "type": "uint256"
        }
      ],
      "stateMutability": "pure",
      "type": "function"
    },
    {
      "inputs": [],
      "name": "renounceOwnership",
      "outputs": [],
      "stateMutability": "nonpayable",
      "type": "function"
    },
    {
      "inputs": [
        {
          "internalType": "uint256",
          "name": "duration_",
          "type": "uint256"
        }
      ],
      "name": "setDuration",
      "outputs": [],
      "stateMutability": "nonpayable",
      "type": "function"
    },
    {
      "inputs": [
        {
          "internalType": "uint256",
          "name": "maxQuantity_",
          "type": "uint256"
        }
      ],
      "name": "setMaxQuantity",
      "outputs": [],
      "stateMutability": "nonpayable",
      "type": "function"
    },
    {
      "inputs": [],
      "name": "start",
      "outputs": [],
      "stateMutability": "nonpayable",
      "type": "function"
    },
    {
      "inputs": [],
      "name": "startTimestamp",
      "outputs": [
        {
          "internalType": "uint256",
          "name": "",
          "type": "uint256"
        }
      ],
      "stateMutability": "view",
      "type": "function"
    },
    {
      "inputs": [],
      "name": "stop",
      "outputs": [],
      "stateMutability": "nonpayable",
      "type": "function"
    },
    {
      "inputs": [],
      "name": "syncAmount",
      "outputs": [],
      "stateMutability": "nonpayable",
      "type": "function"
    },
    {
      "inputs": [
        {
          "internalType": "address",
          "name": "newOwner",
          "type": "address"
        }
      ],
      "name": "transferOwnership",
      "outputs": [],
      "stateMutability": "nonpayable",
      "type": "function"
    }
  ],
  "transactionHash": "0x935e80c049eea7052aab0795d212bc213ad2f14da6fccec4660f89dfa1fc4e34",
  "args": [
    "0x330ceed8e9fc1c5051389fe435c8574a22efd6b2",
    "0x2306b42Baca1b34770EA489F4eC2023f5340B0Ca"
  ],
  "numDeployments": 1,
  "solcInputHash": "bf40c9c749eb331c846372497f869315",
  "bytecode": "0x608060405262093a8060045560146005553480156200001d57600080fd5b5060405162001e7538038062001e75833981810160405281019062000043919062000223565b6200006362000057620000ed60201b60201c565b620000f560201b60201c565b81600160006101000a81548173ffffffffffffffffffffffffffffffffffffffff021916908373ffffffffffffffffffffffffffffffffffffffff16021790555080600260006101000a81548173ffffffffffffffffffffffffffffffffffffffff021916908373ffffffffffffffffffffffffffffffffffffffff16021790555050506200026a565b600033905090565b60008060009054906101000a900473ffffffffffffffffffffffffffffffffffffffff169050816000806101000a81548173ffffffffffffffffffffffffffffffffffffffff021916908373ffffffffffffffffffffffffffffffffffffffff1602179055508173ffffffffffffffffffffffffffffffffffffffff168173ffffffffffffffffffffffffffffffffffffffff167f8be0079c531659141344cd1fd0a4f28419497f9722a3daafe3b4186f6b6457e060405160405180910390a35050565b600080fd5b600073ffffffffffffffffffffffffffffffffffffffff82169050919050565b6000620001eb82620001be565b9050919050565b620001fd81620001de565b81146200020957600080fd5b50565b6000815190506200021d81620001f2565b92915050565b600080604083850312156200023d576200023c620001b9565b5b60006200024d858286016200020c565b925050602062000260858286016200020c565b9150509250929050565b611bfb806200027a6000396000f3fe608060405234801561001057600080fd5b506004361061012c5760003560e01c8063a0712d68116100ad578063dbdff2c111610071578063dbdff2c1146102d3578063e640cf7d146102f1578063e6fd48bc1461030f578063f2fde38b1461032d578063f6be71d1146103495761012c565b8063a0712d6814610255578063aa8c217c14610271578063b19db1081461028f578063be9a655514610299578063d35fbbfb146102a35761012c565b80637dc2268c116100f45780637dc2268c1461019d5780638ca1610b146101bb5780638da5cb5b146101d757806392f8eb94146101f55780639c8be5e4146102255761012c565b806307da68f5146101315780630fb5a6b41461013b57806347ccca02146101595780634a65a57514610177578063715018a614610193575b600080fd5b610139610365565b005b61014361042f565b6040516101509190611160565b60405180910390f35b610161610435565b60405161016e91906111fa565b60405180910390f35b610191600480360381019061018c9190611255565b61045b565b005b61019b610530565b005b6101a56105b8565b6040516101b291906112a3565b60405180910390f35b6101d560048036038101906101d09190611518565b6105de565b005b6101df61074b565b6040516101ec919061159f565b60405180910390f35b61020f600480360381019061020a9190611255565b610774565b60405161021c9190611160565b60405180910390f35b61023f600480360381019061023a91906115ba565b61078c565b60405161024c9190611160565b60405180910390f35b61026f600480360381019061026a9190611255565b6107c2565b005b610279610814565b6040516102869190611160565b60405180910390f35b61029761081a565b005b6102a1610980565b005b6102bd60048036038101906102b891906115fa565b610aec565b6040516102ca9190611160565b60405180910390f35b6102db610b19565b6040516102e89190611160565b60405180910390f35b6102f9610b4e565b6040516103069190611160565b60405180910390f35b610317610b54565b6040516103249190611160565b60405180910390f35b6103476004803603810190610342919061164d565b610b5a565b005b610363600480360381019061035e9190611255565b610c52565b005b61036d610d27565b73ffffffffffffffffffffffffffffffffffffffff1661038b61074b565b73ffffffffffffffffffffffffffffffffffffffff16146103e1576040517f08c379a00000000000000000000000000000000000000000000000000000000081526004016103d8906116d7565b60405180910390fd5b60006003819055503373ffffffffffffffffffffffffffffffffffffffff16427fe1cc44ad90ad02dd0a8c63a8800872fec54272a663d17ece8ee4b3c402643f8060405160405180910390a3565b60045481565b600160009054906101000a900473ffffffffffffffffffffffffffffffffffffffff1681565b610463610d27565b73ffffffffffffffffffffffffffffffffffffffff1661048161074b565b73ffffffffffffffffffffffffffffffffffffffff16146104d7576040517f08c379a00000000000000000000000000000000000000000000000000000000081526004016104ce906116d7565b60405180910390fd5b806005819055503373ffffffffffffffffffffffffffffffffffffffff16427f77102933fdbe779e1b9aab314e8cc979af213c5e956794643a7023c47ef600b7836040516105259190611160565b60405180910390a350565b610538610d27565b73ffffffffffffffffffffffffffffffffffffffff1661055661074b565b73ffffffffffffffffffffffffffffffffffffffff16146105ac576040517f08c379a00000000000000000000000000000000000000000000000000000000081526004016105a3906116d7565b60405180910390fd5b6105b66000610d2f565b565b600260009054906101000a900473ffffffffffffffffffffffffffffffffffffffff1681565b6105e6610d27565b73ffffffffffffffffffffffffffffffffffffffff1661060461074b565b73ffffffffffffffffffffffffffffffffffffffff161461065a576040517f08c379a0000000000000000000000000000000000000000000000000000000008152600401610651906116d7565b60405180910390fd5b60006003541461069f576040517f08c379a000000000000000000000000000000000000000000000000000000000815260040161069690611743565b60405180910390fd5b80518251146106e3576040517f08c379a00000000000000000000000000000000000000000000000000000000081526004016106da906117af565b60405180910390fd5b60008251905060005b818110156107455761073284828151811061070a576107096117cf565b5b6020026020010151848381518110610725576107246117cf565b5b6020026020010151610df3565b808061073d9061182d565b9150506106ec565b50505050565b60008060009054906101000a900473ffffffffffffffffffffffffffffffffffffffff16905090565b60066020528060005260406000206000915090505481565b600082826040516020016107a1929190611897565b6040516020818303038152906040528051906020012060001c905092915050565b600060035411610807576040517f08c379a00000000000000000000000000000000000000000000000000000000081526004016107fe9061190f565b60405180910390fd5b6108118133610df3565b50565b60075481565b610822610d27565b73ffffffffffffffffffffffffffffffffffffffff1661084061074b565b73ffffffffffffffffffffffffffffffffffffffff1614610896576040517f08c379a000000000000000000000000000000000000000000000000000000000815260040161088d906116d7565b60405180910390fd5b600260009054906101000a900473ffffffffffffffffffffffffffffffffffffffff1673ffffffffffffffffffffffffffffffffffffffff1663aa8c217c6040518163ffffffff1660e01b8152600401602060405180830381865afa158015610903573d6000803e3d6000fd5b505050506040513d601f19601f820116820180604052508101906109279190611944565b6007819055503373ffffffffffffffffffffffffffffffffffffffff16427f70fc6c986e271156c1ed966691a42443fd85d5ec1e3406bd7277c5feda4e07f16007546040516109769190611160565b60405180910390a3565b610988610d27565b73ffffffffffffffffffffffffffffffffffffffff166109a661074b565b73ffffffffffffffffffffffffffffffffffffffff16146109fc576040517f08c379a00000000000000000000000000000000000000000000000000000000081526004016109f3906116d7565b60405180910390fd5b4260038190555060006007541415610aa657600260009054906101000a900473ffffffffffffffffffffffffffffffffffffffff1673ffffffffffffffffffffffffffffffffffffffff1663aa8c217c6040518163ffffffff1660e01b8152600401602060405180830381865afa158015610a7b573d6000803e3d6000fd5b505050506040513d601f19601f82011682018060405250810190610a9f9190611944565b6007819055505b3373ffffffffffffffffffffffffffffffffffffffff16427f734cd2a382f4a1f43ba991c09a5f645dc0929abd9f79b2c3b87ec4b9aa207cfd60405160405180910390a3565b6000828383610afb9190611971565b85610b0691906119d4565b610b109190611a05565b90509392505050565b6000444233604051602001610b3093929190611aa3565b6040516020818303038152906040528051906020012060001c905090565b60055481565b60035481565b610b62610d27565b73ffffffffffffffffffffffffffffffffffffffff16610b8061074b565b73ffffffffffffffffffffffffffffffffffffffff1614610bd6576040517f08c379a0000000000000000000000000000000000000000000000000000000008152600401610bcd906116d7565b60405180910390fd5b600073ffffffffffffffffffffffffffffffffffffffff168173ffffffffffffffffffffffffffffffffffffffff161415610c46576040517f08c379a0000000000000000000000000000000000000000000000000000000008152600401610c3d90611b52565b60405180910390fd5b610c4f81610d2f565b50565b610c5a610d27565b73ffffffffffffffffffffffffffffffffffffffff16610c7861074b565b73ffffffffffffffffffffffffffffffffffffffff1614610cce576040517f08c379a0000000000000000000000000000000000000000000000000000000008152600401610cc5906116d7565b60405180910390fd5b806004819055503373ffffffffffffffffffffffffffffffffffffffff16427fe95fd841db2cc2ea9dffae4f99b55cf2fc3cb2ef7d87aed6842d34ab30f585d883604051610d1c9190611160565b60405180910390a350565b600033905090565b60008060009054906101000a900473ffffffffffffffffffffffffffffffffffffffff169050816000806101000a81548173ffffffffffffffffffffffffffffffffffffffff021916908373ffffffffffffffffffffffffffffffffffffffff1602179055508173ffffffffffffffffffffffffffffffffffffffff168173ffffffffffffffffffffffffffffffffffffffff167f8be0079c531659141344cd1fd0a4f28419497f9722a3daafe3b4186f6b6457e060405160405180910390a35050565b6005548211610e025781610e06565b6005545b91506007548211610e175781610e1b565b6007545b915060005b82811015610f64576000610e3b610e35610b19565b8361078c565b90506000610e5882600180600754610e539190611a05565b610aec565b90506000610e6582610f69565b9050610e7082611040565b600160009054906101000a900473ffffffffffffffffffffffffffffffffffffffff1673ffffffffffffffffffffffffffffffffffffffff166340c10f1986836040518363ffffffff1660e01b8152600401610ecd929190611b72565b600060405180830381600087803b158015610ee757600080fd5b505af1158015610efb573d6000803e3d6000fd5b505050508473ffffffffffffffffffffffffffffffffffffffff16427f4e3883c75cc9c752bb1db2e406a822e4a75067ae77ad9a0a4d179f2709b9e1f683604051610f469190611160565b60405180910390a35050508080610f5c9061182d565b915050610e20565b505050565b60008060066000848152602001908152602001600020549050600081141561102a57600260009054906101000a900473ffffffffffffffffffffffffffffffffffffffff1673ffffffffffffffffffffffffffffffffffffffff166392f8eb94846040518263ffffffff1660e01b8152600401610fe69190611160565b602060405180830381865afa158015611003573d6000803e3d6000fd5b505050506040513d601f19601f820116820180604052508101906110279190611944565b90505b6000811415611037578290505b80915050919050565b6000600660006007548152602001908152602001600020549050600081141561110457600260009054906101000a900473ffffffffffffffffffffffffffffffffffffffff1673ffffffffffffffffffffffffffffffffffffffff166392f8eb946007546040518263ffffffff1660e01b81526004016110c09190611160565b602060405180830381865afa1580156110dd573d6000803e3d6000fd5b505050506040513d601f19601f820116820180604052508101906111019190611944565b90505b60008114156111135760075490505b8060066000848152602001908152602001600020819055506007600081548092919061113e90611b9b565b91905055505050565b6000819050919050565b61115a81611147565b82525050565b60006020820190506111756000830184611151565b92915050565b600073ffffffffffffffffffffffffffffffffffffffff82169050919050565b6000819050919050565b60006111c06111bb6111b68461117b565b61119b565b61117b565b9050919050565b60006111d2826111a5565b9050919050565b60006111e4826111c7565b9050919050565b6111f4816111d9565b82525050565b600060208201905061120f60008301846111eb565b92915050565b6000604051905090565b600080fd5b600080fd5b61123281611147565b811461123d57600080fd5b50565b60008135905061124f81611229565b92915050565b60006020828403121561126b5761126a61121f565b5b600061127984828501611240565b91505092915050565b600061128d826111c7565b9050919050565b61129d81611282565b82525050565b60006020820190506112b86000830184611294565b92915050565b600080fd5b6000601f19601f8301169050919050565b7f4e487b7100000000000000000000000000000000000000000000000000000000600052604160045260246000fd5b61130c826112c3565b810181811067ffffffffffffffff8211171561132b5761132a6112d4565b5b80604052505050565b600061133e611215565b905061134a8282611303565b919050565b600067ffffffffffffffff82111561136a576113696112d4565b5b602082029050602081019050919050565b600080fd5b600061139361138e8461134f565b611334565b905080838252602082019050602084028301858111156113b6576113b561137b565b5b835b818110156113df57806113cb8882611240565b8452602084019350506020810190506113b8565b5050509392505050565b600082601f8301126113fe576113fd6112be565b5b813561140e848260208601611380565b91505092915050565b600067ffffffffffffffff821115611432576114316112d4565b5b602082029050602081019050919050565b600061144e8261117b565b9050919050565b61145e81611443565b811461146957600080fd5b50565b60008135905061147b81611455565b92915050565b600061149461148f84611417565b611334565b905080838252602082019050602084028301858111156114b7576114b661137b565b5b835b818110156114e057806114cc888261146c565b8452602084019350506020810190506114b9565b5050509392505050565b600082601f8301126114ff576114fe6112be565b5b813561150f848260208601611481565b91505092915050565b6000806040838503121561152f5761152e61121f565b5b600083013567ffffffffffffffff81111561154d5761154c611224565b5b611559858286016113e9565b925050602083013567ffffffffffffffff81111561157a57611579611224565b5b611586858286016114ea565b9150509250929050565b61159981611443565b82525050565b60006020820190506115b46000830184611590565b92915050565b600080604083850312156115d1576115d061121f565b5b60006115df85828601611240565b92505060206115f085828601611240565b9150509250929050565b6000806000606084860312156116135761161261121f565b5b600061162186828701611240565b935050602061163286828701611240565b925050604061164386828701611240565b9150509250925092565b6000602082840312156116635761166261121f565b5b60006116718482850161146c565b91505092915050565b600082825260208201905092915050565b7f4f776e61626c653a2063616c6c6572206973206e6f7420746865206f776e6572600082015250565b60006116c160208361167a565b91506116cc8261168b565b602082019050919050565b600060208201905081810360008301526116f0816116b4565b9050919050565b7f4d696e74696e6720686173206265656e20737461727465640000000000000000600082015250565b600061172d60188361167a565b9150611738826116f7565b602082019050919050565b6000602082019050818103600083015261175c81611720565b9050919050565b7f446966666572656e742073697a65730000000000000000000000000000000000600082015250565b6000611799600f8361167a565b91506117a482611763565b602082019050919050565b600060208201905081810360008301526117c88161178c565b9050919050565b7f4e487b7100000000000000000000000000000000000000000000000000000000600052603260045260246000fd5b7f4e487b7100000000000000000000000000000000000000000000000000000000600052601160045260246000fd5b600061183882611147565b91507fffffffffffffffffffffffffffffffffffffffffffffffffffffffffffffffff82141561186b5761186a6117fe565b5b600182019050919050565b6000819050919050565b61189161188c82611147565b611876565b82525050565b60006118a38285611880565b6020820191506118b38284611880565b6020820191508190509392505050565b7f4d696e74696e6720686173206e6f74206265656e207374617274656400000000600082015250565b60006118f9601c8361167a565b9150611904826118c3565b602082019050919050565b60006020820190508181036000830152611928816118ec565b9050919050565b60008151905061193e81611229565b92915050565b60006020828403121561195a5761195961121f565b5b60006119688482850161192f565b91505092915050565b600061197c82611147565b915061198783611147565b92508282101561199a576119996117fe565b5b828203905092915050565b7f4e487b7100000000000000000000000000000000000000000000000000000000600052601260045260246000fd5b60006119df82611147565b91506119ea83611147565b9250826119fa576119f96119a5565b5b828206905092915050565b6000611a1082611147565b9150611a1b83611147565b9250827fffffffffffffffffffffffffffffffffffffffffffffffffffffffffffffffff03821115611a5057611a4f6117fe565b5b828201905092915050565b60008160601b9050919050565b6000611a7382611a5b565b9050919050565b6000611a8582611a68565b9050919050565b611a9d611a9882611443565b611a7a565b82525050565b6000611aaf8286611880565b602082019150611abf8285611880565b602082019150611acf8284611a8c565b601482019150819050949350505050565b7f4f776e61626c653a206e6577206f776e657220697320746865207a65726f206160008201527f6464726573730000000000000000000000000000000000000000000000000000602082015250565b6000611b3c60268361167a565b9150611b4782611ae0565b604082019050919050565b60006020820190508181036000830152611b6b81611b2f565b9050919050565b6000604082019050611b876000830185611590565b611b946020830184611151565b9392505050565b6000611ba682611147565b91506000821415611bba57611bb96117fe565b5b60018203905091905056fea26469706673582212203e2a25643f6309982232583eea434d49a09945e63b0dfcfb00d788b08e088e5b64736f6c634300080b0033",
  "devdoc": {
    "kind": "dev",
    "methods": {
      "addSalt(uint256,uint256)": {
        "details": "adds salt to value with hash function",
        "params": {
          "salt": "salt",
          "value": "which salting"
        }
      },
      "constructor": {
        "details": "contructor"
      },
      "getRandomNumber()": {
        "details": "generates random number"
      },
      "mint(uint256)": {
        "details": "mints nft to user",
        "params": {
          "quantity": "amount of nft to mint"
        }
      },
      "mintMass(uint256[],address[])": {
        "details": "mints nfts for user by owner",
        "params": {
          "quantities": "amount of nft to mint",
          "users": "users"
        }
      },
      "owner()": {
        "details": "Returns the address of the current owner."
      },
      "range(uint256,uint256,uint256)": {
        "details": "maps number to range from `from` (includes) to `to` (excludes)",
        "params": {
          "from": "start of range",
          "number": "initial number",
          "to": "stop of range"
        },
        "returns": {
          "_0": "map result"
        }
      },
      "renounceOwnership()": {
        "details": "Leaves the contract without owner. It will not be possible to call `onlyOwner` functions anymore. Can only be called by the current owner. NOTE: Renouncing ownership will leave the contract without an owner, thereby removing any functionality that is only available to the owner."
      },
      "setDuration(uint256)": {
        "details": "sets new duration of public mint from startTimestamp",
        "params": {
          "duration_": "new duration of minting"
        }
      },
      "setMaxQuantity(uint256)": {
        "details": "sets maxQuantity",
        "params": {
          "maxQuantity_": "new max quantity"
        }
      },
      "start()": {
        "details": "starts minting"
      },
      "stop()": {
        "details": "stops minting"
      },
      "syncAmount()": {
        "details": "syncs amount from old minting"
      },
      "transferOwnership(address)": {
        "details": "Transfers ownership of the contract to a new account (`newOwner`). Can only be called by the current owner."
      }
    },
    "version": 1
  },
  "userdoc": {
    "kind": "user",
    "methods": {},
    "version": 1
  },
  "storageLayout": {
    "storage": [
      {
        "astId": 273,
        "contract": "contracts/PublicMinting.sol:PublicMinting",
        "label": "_owner",
        "offset": 0,
        "slot": "0",
        "type": "t_address"
      },
      {
        "astId": 1276,
        "contract": "contracts/PublicMinting.sol:PublicMinting",
        "label": "nft",
        "offset": 0,
        "slot": "1",
        "type": "t_contract(IERC721Custom)470"
      },
      {
        "astId": 1279,
        "contract": "contracts/PublicMinting.sol:PublicMinting",
        "label": "minting",
        "offset": 0,
        "slot": "2",
        "type": "t_contract(OldMinting)1271"
      },
      {
        "astId": 1281,
        "contract": "contracts/PublicMinting.sol:PublicMinting",
        "label": "startTimestamp",
        "offset": 0,
        "slot": "3",
        "type": "t_uint256"
      },
      {
        "astId": 1284,
        "contract": "contracts/PublicMinting.sol:PublicMinting",
        "label": "duration",
        "offset": 0,
        "slot": "4",
        "type": "t_uint256"
      },
      {
        "astId": 1287,
        "contract": "contracts/PublicMinting.sol:PublicMinting",
        "label": "maxQuantity",
        "offset": 0,
        "slot": "5",
        "type": "t_uint256"
      },
      {
        "astId": 1291,
        "contract": "contracts/PublicMinting.sol:PublicMinting",
        "label": "indexes",
        "offset": 0,
        "slot": "6",
        "type": "t_mapping(t_uint256,t_uint256)"
      },
      {
        "astId": 1293,
        "contract": "contracts/PublicMinting.sol:PublicMinting",
        "label": "amount",
        "offset": 0,
        "slot": "7",
        "type": "t_uint256"
      }
    ],
    "types": {
      "t_address": {
        "encoding": "inplace",
        "label": "address",
        "numberOfBytes": "20"
      },
      "t_contract(IERC721Custom)470": {
        "encoding": "inplace",
        "label": "contract IERC721Custom",
        "numberOfBytes": "20"
      },
      "t_contract(OldMinting)1271": {
        "encoding": "inplace",
        "label": "contract OldMinting",
        "numberOfBytes": "20"
      },
      "t_mapping(t_uint256,t_uint256)": {
        "encoding": "mapping",
        "key": "t_uint256",
        "label": "mapping(uint256 => uint256)",
        "numberOfBytes": "32",
        "value": "t_uint256"
      },
      "t_uint256": {
        "encoding": "inplace",
        "label": "uint256",
        "numberOfBytes": "32"
      }
    }
  }
}